{
	"contracts/SIMPLESTORAGE.sol": {
		"SimpleStorage": {
			"abi": [
				{
					"inputs": [
						{
							"internalType": "string",
							"name": "_name",
							"type": "string"
						},
						{
							"internalType": "uint256",
							"name": "_favoriteNumber",
							"type": "uint256"
						}
					],
					"name": "addperson",
					"outputs": [],
					"stateMutability": "nonpayable",
					"type": "function"
				},
				{
					"inputs": [],
					"name": "favoriteNumber",
					"outputs": [
						{
							"internalType": "uint256",
							"name": "",
							"type": "uint256"
						}
					],
					"stateMutability": "view",
					"type": "function"
				},
				{
					"inputs": [
						{
							"internalType": "uint256",
							"name": "",
							"type": "uint256"
						}
					],
					"name": "people",
					"outputs": [
						{
							"internalType": "uint256",
							"name": "favoriteNumber",
							"type": "uint256"
						},
						{
							"internalType": "string",
							"name": "name",
							"type": "string"
						}
					],
					"stateMutability": "view",
					"type": "function"
				},
				{
					"inputs": [],
					"name": "person",
					"outputs": [
						{
							"internalType": "uint256",
							"name": "favoriteNumber",
							"type": "uint256"
						},
						{
							"internalType": "string",
							"name": "name",
							"type": "string"
						}
					],
					"stateMutability": "view",
					"type": "function"
				},
				{
					"inputs": [],
					"name": "retrieve",
					"outputs": [
						{
							"internalType": "uint256",
							"name": "",
							"type": "uint256"
						}
					],
					"stateMutability": "view",
					"type": "function"
				},
				{
					"inputs": [
						{
							"internalType": "int256",
							"name": "_fanum",
							"type": "int256"
						}
					],
					"name": "store",
					"outputs": [],
					"stateMutability": "nonpayable",
					"type": "function"
				}
			],
			"devdoc": {
				"kind": "dev",
				"methods": {},
				"version": 1
			},
			"evm": {
				"assembly": "    /* \"contracts/SIMPLESTORAGE.sol\":162:2165  contract SimpleStorage//contract is a keyword in solidity and tells the compiler that the next section of the code will define the contract ... */\n  mstore(0x40, 0x80)\n    /* \"contracts/SIMPLESTORAGE.sol\":444:448  true */\n  0x01\n    /* \"contracts/SIMPLESTORAGE.sol\":429:448  bool hasfavnum=true */\n  0x00\n  exp(0x0100, 0x00)\n  dup2\n  sload\n  dup2\n  0xff\n  mul\n  not\n  and\n  swap1\n  dup4\n  iszero\n  iszero\n  mul\n  or\n  swap1\n  sstore\n  pop\n    /* \"contracts/SIMPLESTORAGE.sol\":492:495  123 */\n  0x7b\n    /* \"contracts/SIMPLESTORAGE.sol\":480:495  uint favnum=123 */\n  0x01\n  sstore\n    /* \"contracts/SIMPLESTORAGE.sol\":518:540  string favnumit=\"five\" */\n  mload(0x40)\n  dup1\n  0x40\n  add\n  0x40\n  mstore\n  dup1\n  0x04\n  dup2\n  mstore\n  0x20\n  add\n  0x6669766500000000000000000000000000000000000000000000000000000000\n  dup2\n  mstore\n  pop\n  0x03\n  swap1\n  dup2\n  tag_1\n  swap2\n  swap1\n  tag_2\n  jump\t// in\ntag_1:\n  pop\n    /* \"contracts/SIMPLESTORAGE.sol\":565:607  0x1066618d0973e44EfD2Fe5114fD18b64c6420AbB */\n  0x1066618d0973e44efd2fe5114fd18b64c6420abb\n    /* \"contracts/SIMPLESTORAGE.sol\":547:607  address akkiadd = 0x1066618d0973e44EfD2Fe5114fD18b64c6420AbB */\n  0x04\n  exp(0x0100, 0x00)\n  dup2\n  sload\n  dup2\n  0xffffffffffffffffffffffffffffffffffffffff\n  mul\n  not\n  and\n  swap1\n  dup4\n  0xffffffffffffffffffffffffffffffffffffffff\n  and\n  mul\n  or\n  swap1\n  sstore\n  pop\n    /* \"contracts/SIMPLESTORAGE.sol\":1647:1688  People({favoriteNumber:2,name:\"Patrick\"}) */\n  mload(0x40)\n  dup1\n  0x40\n  add\n  0x40\n  mstore\n  dup1\n    /* \"contracts/SIMPLESTORAGE.sol\":1670:1671  2 */\n  0x02\n    /* \"contracts/SIMPLESTORAGE.sol\":1647:1688  People({favoriteNumber:2,name:\"Patrick\"}) */\n  dup2\n  mstore\n  0x20\n  add\n  mload(0x40)\n  dup1\n  0x40\n  add\n  0x40\n  mstore\n  dup1\n  0x07\n  dup2\n  mstore\n  0x20\n  add\n  0x5061747269636b00000000000000000000000000000000000000000000000000\n  dup2\n  mstore\n  pop\n  dup2\n  mstore\n  pop\n    /* \"contracts/SIMPLESTORAGE.sol\":1626:1688  People public person=People({favoriteNumber:2,name:\"Patrick\"}) */\n  0x06\n  0x00\n  dup3\n  add\n  mload\n  dup2\n  0x00\n  add\n  sstore\n  0x20\n  dup3\n  add\n  mload\n  dup2\n  0x01\n  add\n  swap1\n  dup2\n  tag_3\n  swap2\n  swap1\n  tag_2\n  jump\t// in\ntag_3:\n  pop\n  pop\n  pop\n    /* \"contracts/SIMPLESTORAGE.sol\":162:2165  contract SimpleStorage//contract is a keyword in solidity and tells the compiler that the next section of the code will define the contract ... */\n  callvalue\n  dup1\n  iszero\n  tag_4\n  jumpi\n  revert(0x00, 0x00)\ntag_4:\n  pop\n  jump(tag_5)\n    /* \"#utility.yul\":7:106   */\ntag_6:\n    /* \"#utility.yul\":59:65   */\n  0x00\n    /* \"#utility.yul\":93:98   */\n  dup2\n    /* \"#utility.yul\":87:99   */\n  mload\n    /* \"#utility.yul\":77:99   */\n  swap1\n  pop\n    /* \"#utility.yul\":7:106   */\n  swap2\n  swap1\n  pop\n  jump\t// out\n    /* \"#utility.yul\":112:292   */\ntag_7:\n    /* \"#utility.yul\":160:237   */\n  0x4e487b7100000000000000000000000000000000000000000000000000000000\n    /* \"#utility.yul\":157:158   */\n  0x00\n    /* \"#utility.yul\":150:238   */\n  mstore\n    /* \"#utility.yul\":257:261   */\n  0x41\n    /* \"#utility.yul\":254:255   */\n  0x04\n    /* \"#utility.yul\":247:262   */\n  mstore\n    /* \"#utility.yul\":281:285   */\n  0x24\n    /* \"#utility.yul\":278:279   */\n  0x00\n    /* \"#utility.yul\":271:286   */\n  revert\n    /* \"#utility.yul\":298:478   */\ntag_8:\n    /* \"#utility.yul\":346:423   */\n  0x4e487b7100000000000000000000000000000000000000000000000000000000\n    /* \"#utility.yul\":343:344   */\n  0x00\n    /* \"#utility.yul\":336:424   */\n  mstore\n    /* \"#utility.yul\":443:447   */\n  0x22\n    /* \"#utility.yul\":440:441   */\n  0x04\n    /* \"#utility.yul\":433:448   */\n  mstore\n    /* \"#utility.yul\":467:471   */\n  0x24\n    /* \"#utility.yul\":464:465   */\n  0x00\n    /* \"#utility.yul\":457:472   */\n  revert\n    /* \"#utility.yul\":484:804   */\ntag_9:\n    /* \"#utility.yul\":528:534   */\n  0x00\n    /* \"#utility.yul\":565:566   */\n  0x02\n    /* \"#utility.yul\":559:563   */\n  dup3\n    /* \"#utility.yul\":555:567   */\n  div\n    /* \"#utility.yul\":545:567   */\n  swap1\n  pop\n    /* \"#utility.yul\":612:613   */\n  0x01\n    /* \"#utility.yul\":606:610   */\n  dup3\n    /* \"#utility.yul\":602:614   */\n  and\n    /* \"#utility.yul\":633:651   */\n  dup1\n    /* \"#utility.yul\":623:704   */\n  tag_31\n  jumpi\n    /* \"#utility.yul\":689:693   */\n  0x7f\n    /* \"#utility.yul\":681:687   */\n  dup3\n    /* \"#utility.yul\":677:694   */\n  and\n    /* \"#utility.yul\":667:694   */\n  swap2\n  pop\n    /* \"#utility.yul\":623:704   */\ntag_31:\n    /* \"#utility.yul\":751:753   */\n  0x20\n    /* \"#utility.yul\":743:749   */\n  dup3\n    /* \"#utility.yul\":740:754   */\n  lt\n    /* \"#utility.yul\":720:738   */\n  dup2\n    /* \"#utility.yul\":717:755   */\n  sub\n    /* \"#utility.yul\":714:798   */\n  tag_32\n  jumpi\n    /* \"#utility.yul\":770:788   */\n  tag_33\n  tag_8\n  jump\t// in\ntag_33:\n    /* \"#utility.yul\":714:798   */\ntag_32:\n    /* \"#utility.yul\":535:804   */\n  pop\n    /* \"#utility.yul\":484:804   */\n  swap2\n  swap1\n  pop\n  jump\t// out\n    /* \"#utility.yul\":810:951   */\ntag_10:\n    /* \"#utility.yul\":859:863   */\n  0x00\n    /* \"#utility.yul\":882:885   */\n  dup2\n    /* \"#utility.yul\":874:885   */\n  swap1\n  pop\n    /* \"#utility.yul\":905:908   */\n  dup2\n    /* \"#utility.yul\":902:903   */\n  0x00\n    /* \"#utility.yul\":895:909   */\n  mstore\n    /* \"#utility.yul\":939:943   */\n  0x20\n    /* \"#utility.yul\":936:937   */\n  0x00\n    /* \"#utility.yul\":926:944   */\n  keccak256\n    /* \"#utility.yul\":918:944   */\n  swap1\n  pop\n    /* \"#utility.yul\":810:951   */\n  swap2\n  swap1\n  pop\n  jump\t// out\n    /* \"#utility.yul\":957:1050   */\ntag_11:\n    /* \"#utility.yul\":994:1000   */\n  0x00\n    /* \"#utility.yul\":1041:1043   */\n  0x20\n    /* \"#utility.yul\":1036:1038   */\n  0x1f\n    /* \"#utility.yul\":1029:1034   */\n  dup4\n    /* \"#utility.yul\":1025:1039   */\n  add\n    /* \"#utility.yul\":1021:1044   */\n  div\n    /* \"#utility.yul\":1011:1044   */\n  swap1\n  pop\n    /* \"#utility.yul\":957:1050   */\n  swap2\n  swap1\n  pop\n  jump\t// out\n    /* \"#utility.yul\":1056:1163   */\ntag_12:\n    /* \"#utility.yul\":1100:1108   */\n  0x00\n    /* \"#utility.yul\":1150:1155   */\n  dup3\n    /* \"#utility.yul\":1144:1148   */\n  dup3\n    /* \"#utility.yul\":1140:1156   */\n  shl\n    /* \"#utility.yul\":1119:1156   */\n  swap1\n  pop\n    /* \"#utility.yul\":1056:1163   */\n  swap3\n  swap2\n  pop\n  pop\n  jump\t// out\n    /* \"#utility.yul\":1169:1562   */\ntag_13:\n    /* \"#utility.yul\":1238:1244   */\n  0x00\n    /* \"#utility.yul\":1288:1289   */\n  0x08\n    /* \"#utility.yul\":1276:1286   */\n  dup4\n    /* \"#utility.yul\":1272:1290   */\n  mul\n    /* \"#utility.yul\":1311:1408   */\n  tag_38\n    /* \"#utility.yul\":1341:1407   */\n  0xffffffffffffffffffffffffffffffffffffffffffffffffffffffffffffffff\n    /* \"#utility.yul\":1330:1339   */\n  dup3\n    /* \"#utility.yul\":1311:1408   */\n  tag_12\n  jump\t// in\ntag_38:\n    /* \"#utility.yul\":1429:1468   */\n  tag_39\n    /* \"#utility.yul\":1459:1467   */\n  dup7\n    /* \"#utility.yul\":1448:1457   */\n  dup4\n    /* \"#utility.yul\":1429:1468   */\n  tag_12\n  jump\t// in\ntag_39:\n    /* \"#utility.yul\":1417:1468   */\n  swap6\n  pop\n    /* \"#utility.yul\":1501:1505   */\n  dup1\n    /* \"#utility.yul\":1497:1506   */\n  not\n    /* \"#utility.yul\":1490:1495   */\n  dup5\n    /* \"#utility.yul\":1486:1507   */\n  and\n    /* \"#utility.yul\":1477:1507   */\n  swap4\n  pop\n    /* \"#utility.yul\":1550:1554   */\n  dup1\n    /* \"#utility.yul\":1540:1548   */\n  dup7\n    /* \"#utility.yul\":1536:1555   */\n  and\n    /* \"#utility.yul\":1529:1534   */\n  dup5\n    /* \"#utility.yul\":1526:1556   */\n  or\n    /* \"#utility.yul\":1516:1556   */\n  swap3\n  pop\n    /* \"#utility.yul\":1245:1562   */\n  pop\n  pop\n    /* \"#utility.yul\":1169:1562   */\n  swap4\n  swap3\n  pop\n  pop\n  pop\n  jump\t// out\n    /* \"#utility.yul\":1568:1645   */\ntag_14:\n    /* \"#utility.yul\":1605:1612   */\n  0x00\n    /* \"#utility.yul\":1634:1639   */\n  dup2\n    /* \"#utility.yul\":1623:1639   */\n  swap1\n  pop\n    /* \"#utility.yul\":1568:1645   */\n  swap2\n  swap1\n  pop\n  jump\t// out\n    /* \"#utility.yul\":1651:1711   */\ntag_15:\n    /* \"#utility.yul\":1679:1682   */\n  0x00\n    /* \"#utility.yul\":1700:1705   */\n  dup2\n    /* \"#utility.yul\":1693:1705   */\n  swap1\n  pop\n    /* \"#utility.yul\":1651:1711   */\n  swap2\n  swap1\n  pop\n  jump\t// out\n    /* \"#utility.yul\":1717:1859   */\ntag_16:\n    /* \"#utility.yul\":1767:1776   */\n  0x00\n    /* \"#utility.yul\":1800:1853   */\n  tag_43\n    /* \"#utility.yul\":1818:1852   */\n  tag_44\n    /* \"#utility.yul\":1827:1851   */\n  tag_45\n    /* \"#utility.yul\":1845:1850   */\n  dup5\n    /* \"#utility.yul\":1827:1851   */\n  tag_14\n  jump\t// in\ntag_45:\n    /* \"#utility.yul\":1818:1852   */\n  tag_15\n  jump\t// in\ntag_44:\n    /* \"#utility.yul\":1800:1853   */\n  tag_14\n  jump\t// in\ntag_43:\n    /* \"#utility.yul\":1787:1853   */\n  swap1\n  pop\n    /* \"#utility.yul\":1717:1859   */\n  swap2\n  swap1\n  pop\n  jump\t// out\n    /* \"#utility.yul\":1865:1940   */\ntag_17:\n    /* \"#utility.yul\":1908:1911   */\n  0x00\n    /* \"#utility.yul\":1929:1934   */\n  dup2\n    /* \"#utility.yul\":1922:1934   */\n  swap1\n  pop\n    /* \"#utility.yul\":1865:1940   */\n  swap2\n  swap1\n  pop\n  jump\t// out\n    /* \"#utility.yul\":1946:2215   */\ntag_18:\n    /* \"#utility.yul\":2056:2095   */\n  tag_48\n    /* \"#utility.yul\":2087:2094   */\n  dup4\n    /* \"#utility.yul\":2056:2095   */\n  tag_16\n  jump\t// in\ntag_48:\n    /* \"#utility.yul\":2117:2208   */\n  tag_49\n    /* \"#utility.yul\":2166:2207   */\n  tag_50\n    /* \"#utility.yul\":2190:2206   */\n  dup3\n    /* \"#utility.yul\":2166:2207   */\n  tag_17\n  jump\t// in\ntag_50:\n    /* \"#utility.yul\":2158:2164   */\n  dup5\n    /* \"#utility.yul\":2151:2155   */\n  dup5\n    /* \"#utility.yul\":2145:2156   */\n  sload\n    /* \"#utility.yul\":2117:2208   */\n  tag_13\n  jump\t// in\ntag_49:\n    /* \"#utility.yul\":2111:2115   */\n  dup3\n    /* \"#utility.yul\":2104:2209   */\n  sstore\n    /* \"#utility.yul\":2022:2215   */\n  pop\n    /* \"#utility.yul\":1946:2215   */\n  pop\n  pop\n  pop\n  jump\t// out\n    /* \"#utility.yul\":2221:2294   */\ntag_19:\n    /* \"#utility.yul\":2266:2269   */\n  0x00\n    /* \"#utility.yul\":2287:2288   */\n  0x00\n    /* \"#utility.yul\":2280:2288   */\n  swap1\n  pop\n    /* \"#utility.yul\":2221:2294   */\n  swap1\n  jump\t// out\n    /* \"#utility.yul\":2300:2489   */\ntag_20:\n    /* \"#utility.yul\":2377:2409   */\n  tag_53\n  tag_19\n  jump\t// in\ntag_53:\n    /* \"#utility.yul\":2418:2483   */\n  tag_54\n    /* \"#utility.yul\":2476:2482   */\n  dup2\n    /* \"#utility.yul\":2468:2474   */\n  dup5\n    /* \"#utility.yul\":2462:2466   */\n  dup5\n    /* \"#utility.yul\":2418:2483   */\n  tag_18\n  jump\t// in\ntag_54:\n    /* \"#utility.yul\":2353:2489   */\n  pop\n    /* \"#utility.yul\":2300:2489   */\n  pop\n  pop\n  jump\t// out\n    /* \"#utility.yul\":2495:2681   */\ntag_21:\n    /* \"#utility.yul\":2555:2675   */\ntag_56:\n    /* \"#utility.yul\":2572:2575   */\n  dup2\n    /* \"#utility.yul\":2565:2570   */\n  dup2\n    /* \"#utility.yul\":2562:2576   */\n  lt\n    /* \"#utility.yul\":2555:2675   */\n  iszero\n  tag_58\n  jumpi\n    /* \"#utility.yul\":2626:2665   */\n  tag_59\n    /* \"#utility.yul\":2663:2664   */\n  0x00\n    /* \"#utility.yul\":2656:2661   */\n  dup3\n    /* \"#utility.yul\":2626:2665   */\n  tag_20\n  jump\t// in\ntag_59:\n    /* \"#utility.yul\":2599:2600   */\n  0x01\n    /* \"#utility.yul\":2592:2597   */\n  dup2\n    /* \"#utility.yul\":2588:2601   */\n  add\n    /* \"#utility.yul\":2579:2601   */\n  swap1\n  pop\n    /* \"#utility.yul\":2555:2675   */\n  jump(tag_56)\ntag_58:\n    /* \"#utility.yul\":2495:2681   */\n  pop\n  pop\n  jump\t// out\n    /* \"#utility.yul\":2687:3230   */\ntag_22:\n    /* \"#utility.yul\":2788:2790   */\n  0x1f\n    /* \"#utility.yul\":2783:2786   */\n  dup3\n    /* \"#utility.yul\":2780:2791   */\n  gt\n    /* \"#utility.yul\":2777:3223   */\n  iszero\n  tag_61\n  jumpi\n    /* \"#utility.yul\":2822:2860   */\n  tag_62\n    /* \"#utility.yul\":2854:2859   */\n  dup2\n    /* \"#utility.yul\":2822:2860   */\n  tag_10\n  jump\t// in\ntag_62:\n    /* \"#utility.yul\":2906:2935   */\n  tag_63\n    /* \"#utility.yul\":2924:2934   */\n  dup5\n    /* \"#utility.yul\":2906:2935   */\n  tag_11\n  jump\t// in\ntag_63:\n    /* \"#utility.yul\":2896:2904   */\n  dup2\n    /* \"#utility.yul\":2892:2936   */\n  add\n    /* \"#utility.yul\":3089:3091   */\n  0x20\n    /* \"#utility.yul\":3077:3087   */\n  dup6\n    /* \"#utility.yul\":3074:3092   */\n  lt\n    /* \"#utility.yul\":3071:3120   */\n  iszero\n  tag_64\n  jumpi\n    /* \"#utility.yul\":3110:3118   */\n  dup2\n    /* \"#utility.yul\":3095:3118   */\n  swap1\n  pop\n    /* \"#utility.yul\":3071:3120   */\ntag_64:\n    /* \"#utility.yul\":3133:3213   */\n  tag_65\n    /* \"#utility.yul\":3189:3211   */\n  tag_66\n    /* \"#utility.yul\":3207:3210   */\n  dup6\n    /* \"#utility.yul\":3189:3211   */\n  tag_11\n  jump\t// in\ntag_66:\n    /* \"#utility.yul\":3179:3187   */\n  dup4\n    /* \"#utility.yul\":3175:3212   */\n  add\n    /* \"#utility.yul\":3162:3173   */\n  dup3\n    /* \"#utility.yul\":3133:3213   */\n  tag_21\n  jump\t// in\ntag_65:\n    /* \"#utility.yul\":2792:3223   */\n  pop\n  pop\n    /* \"#utility.yul\":2777:3223   */\ntag_61:\n    /* \"#utility.yul\":2687:3230   */\n  pop\n  pop\n  pop\n  jump\t// out\n    /* \"#utility.yul\":3236:3353   */\ntag_23:\n    /* \"#utility.yul\":3290:3298   */\n  0x00\n    /* \"#utility.yul\":3340:3345   */\n  dup3\n    /* \"#utility.yul\":3334:3338   */\n  dup3\n    /* \"#utility.yul\":3330:3346   */\n  shr\n    /* \"#utility.yul\":3309:3346   */\n  swap1\n  pop\n    /* \"#utility.yul\":3236:3353   */\n  swap3\n  swap2\n  pop\n  pop\n  jump\t// out\n    /* \"#utility.yul\":3359:3528   */\ntag_24:\n    /* \"#utility.yul\":3403:3409   */\n  0x00\n    /* \"#utility.yul\":3436:3487   */\n  tag_69\n    /* \"#utility.yul\":3484:3485   */\n  0x00\n    /* \"#utility.yul\":3480:3486   */\n  not\n    /* \"#utility.yul\":3472:3477   */\n  dup5\n    /* \"#utility.yul\":3469:3470   */\n  0x08\n    /* \"#utility.yul\":3465:3478   */\n  mul\n    /* \"#utility.yul\":3436:3487   */\n  tag_23\n  jump\t// in\ntag_69:\n    /* \"#utility.yul\":3432:3488   */\n  not\n    /* \"#utility.yul\":3517:3521   */\n  dup1\n    /* \"#utility.yul\":3511:3515   */\n  dup4\n    /* \"#utility.yul\":3507:3522   */\n  and\n    /* \"#utility.yul\":3497:3522   */\n  swap2\n  pop\n    /* \"#utility.yul\":3410:3528   */\n  pop\n    /* \"#utility.yul\":3359:3528   */\n  swap3\n  swap2\n  pop\n  pop\n  jump\t// out\n    /* \"#utility.yul\":3533:3828   */\ntag_25:\n    /* \"#utility.yul\":3609:3613   */\n  0x00\n    /* \"#utility.yul\":3755:3784   */\n  tag_71\n    /* \"#utility.yul\":3780:3783   */\n  dup4\n    /* \"#utility.yul\":3774:3778   */\n  dup4\n    /* \"#utility.yul\":3755:3784   */\n  tag_24\n  jump\t// in\ntag_71:\n    /* \"#utility.yul\":3747:3784   */\n  swap2\n  pop\n    /* \"#utility.yul\":3817:3820   */\n  dup3\n    /* \"#utility.yul\":3814:3815   */\n  0x02\n    /* \"#utility.yul\":3810:3821   */\n  mul\n    /* \"#utility.yul\":3804:3808   */\n  dup3\n    /* \"#utility.yul\":3801:3822   */\n  or\n    /* \"#utility.yul\":3793:3822   */\n  swap1\n  pop\n    /* \"#utility.yul\":3533:3828   */\n  swap3\n  swap2\n  pop\n  pop\n  jump\t// out\n    /* \"#utility.yul\":3833:5228   */\ntag_2:\n    /* \"#utility.yul\":3950:3987   */\n  tag_73\n    /* \"#utility.yul\":3983:3986   */\n  dup3\n    /* \"#utility.yul\":3950:3987   */\n  tag_6\n  jump\t// in\ntag_73:\n    /* \"#utility.yul\":4052:4070   */\n  0xffffffffffffffff\n    /* \"#utility.yul\":4044:4050   */\n  dup2\n    /* \"#utility.yul\":4041:4071   */\n  gt\n    /* \"#utility.yul\":4038:4094   */\n  iszero\n  tag_74\n  jumpi\n    /* \"#utility.yul\":4074:4092   */\n  tag_75\n  tag_7\n  jump\t// in\ntag_75:\n    /* \"#utility.yul\":4038:4094   */\ntag_74:\n    /* \"#utility.yul\":4118:4156   */\n  tag_76\n    /* \"#utility.yul\":4150:4154   */\n  dup3\n    /* \"#utility.yul\":4144:4155   */\n  sload\n    /* \"#utility.yul\":4118:4156   */\n  tag_9\n  jump\t// in\ntag_76:\n    /* \"#utility.yul\":4203:4270   */\n  tag_77\n    /* \"#utility.yul\":4263:4269   */\n  dup3\n    /* \"#utility.yul\":4255:4261   */\n  dup3\n    /* \"#utility.yul\":4249:4253   */\n  dup6\n    /* \"#utility.yul\":4203:4270   */\n  tag_22\n  jump\t// in\ntag_77:\n    /* \"#utility.yul\":4297:4298   */\n  0x00\n    /* \"#utility.yul\":4321:4325   */\n  0x20\n    /* \"#utility.yul\":4308:4325   */\n  swap1\n  pop\n    /* \"#utility.yul\":4353:4355   */\n  0x1f\n    /* \"#utility.yul\":4345:4351   */\n  dup4\n    /* \"#utility.yul\":4342:4356   */\n  gt\n    /* \"#utility.yul\":4370:4371   */\n  0x01\n    /* \"#utility.yul\":4365:4983   */\n  dup2\n  eq\n  tag_79\n  jumpi\n    /* \"#utility.yul\":5027:5028   */\n  0x00\n    /* \"#utility.yul\":5044:5050   */\n  dup5\n    /* \"#utility.yul\":5041:5118   */\n  iszero\n  tag_80\n  jumpi\n    /* \"#utility.yul\":5093:5102   */\n  dup3\n    /* \"#utility.yul\":5088:5091   */\n  dup8\n    /* \"#utility.yul\":5084:5103   */\n  add\n    /* \"#utility.yul\":5078:5104   */\n  mload\n    /* \"#utility.yul\":5069:5104   */\n  swap1\n  pop\n    /* \"#utility.yul\":5041:5118   */\ntag_80:\n    /* \"#utility.yul\":5144:5211   */\n  tag_81\n    /* \"#utility.yul\":5204:5210   */\n  dup6\n    /* \"#utility.yul\":5197:5202   */\n  dup3\n    /* \"#utility.yul\":5144:5211   */\n  tag_25\n  jump\t// in\ntag_81:\n    /* \"#utility.yul\":5138:5142   */\n  dup7\n    /* \"#utility.yul\":5131:5212   */\n  sstore\n    /* \"#utility.yul\":5000:5222   */\n  pop\n    /* \"#utility.yul\":4335:5222   */\n  jump(tag_78)\n    /* \"#utility.yul\":4365:4983   */\ntag_79:\n    /* \"#utility.yul\":4417:4421   */\n  0x1f\n    /* \"#utility.yul\":4413:4422   */\n  not\n    /* \"#utility.yul\":4405:4411   */\n  dup5\n    /* \"#utility.yul\":4401:4423   */\n  and\n    /* \"#utility.yul\":4451:4488   */\n  tag_82\n    /* \"#utility.yul\":4483:4487   */\n  dup7\n    /* \"#utility.yul\":4451:4488   */\n  tag_10\n  jump\t// in\ntag_82:\n    /* \"#utility.yul\":4510:4511   */\n  0x00\n    /* \"#utility.yul\":4524:4732   */\ntag_83:\n    /* \"#utility.yul\":4538:4545   */\n  dup3\n    /* \"#utility.yul\":4535:4536   */\n  dup2\n    /* \"#utility.yul\":4532:4546   */\n  lt\n    /* \"#utility.yul\":4524:4732   */\n  iszero\n  tag_85\n  jumpi\n    /* \"#utility.yul\":4617:4626   */\n  dup5\n    /* \"#utility.yul\":4612:4615   */\n  dup10\n    /* \"#utility.yul\":4608:4627   */\n  add\n    /* \"#utility.yul\":4602:4628   */\n  mload\n    /* \"#utility.yul\":4594:4600   */\n  dup3\n    /* \"#utility.yul\":4587:4629   */\n  sstore\n    /* \"#utility.yul\":4668:4669   */\n  0x01\n    /* \"#utility.yul\":4660:4666   */\n  dup3\n    /* \"#utility.yul\":4656:4670   */\n  add\n    /* \"#utility.yul\":4646:4670   */\n  swap2\n  pop\n    /* \"#utility.yul\":4715:4717   */\n  0x20\n    /* \"#utility.yul\":4704:4713   */\n  dup6\n    /* \"#utility.yul\":4700:4718   */\n  add\n    /* \"#utility.yul\":4687:4718   */\n  swap5\n  pop\n    /* \"#utility.yul\":4561:4565   */\n  0x20\n    /* \"#utility.yul\":4558:4559   */\n  dup2\n    /* \"#utility.yul\":4554:4566   */\n  add\n    /* \"#utility.yul\":4549:4566   */\n  swap1\n  pop\n    /* \"#utility.yul\":4524:4732   */\n  jump(tag_83)\ntag_85:\n    /* \"#utility.yul\":4760:4766   */\n  dup7\n    /* \"#utility.yul\":4751:4758   */\n  dup4\n    /* \"#utility.yul\":4748:4767   */\n  lt\n    /* \"#utility.yul\":4745:4924   */\n  iszero\n  tag_86\n  jumpi\n    /* \"#utility.yul\":4818:4827   */\n  dup5\n    /* \"#utility.yul\":4813:4816   */\n  dup10\n    /* \"#utility.yul\":4809:4828   */\n  add\n    /* \"#utility.yul\":4803:4829   */\n  mload\n    /* \"#utility.yul\":4861:4909   */\n  tag_87\n    /* \"#utility.yul\":4903:4907   */\n  0x1f\n    /* \"#utility.yul\":4895:4901   */\n  dup10\n    /* \"#utility.yul\":4891:4908   */\n  and\n    /* \"#utility.yul\":4880:4889   */\n  dup3\n    /* \"#utility.yul\":4861:4909   */\n  tag_24\n  jump\t// in\ntag_87:\n    /* \"#utility.yul\":4853:4859   */\n  dup4\n    /* \"#utility.yul\":4846:4910   */\n  sstore\n    /* \"#utility.yul\":4768:4924   */\n  pop\n    /* \"#utility.yul\":4745:4924   */\ntag_86:\n    /* \"#utility.yul\":4970:4971   */\n  0x01\n    /* \"#utility.yul\":4966:4967   */\n  0x02\n    /* \"#utility.yul\":4958:4964   */\n  dup9\n    /* \"#utility.yul\":4954:4968   */\n  mul\n    /* \"#utility.yul\":4950:4972   */\n  add\n    /* \"#utility.yul\":4944:4948   */\n  dup9\n    /* \"#utility.yul\":4937:4973   */\n  sstore\n    /* \"#utility.yul\":4372:4983   */\n  pop\n  pop\n  pop\n    /* \"#utility.yul\":4335:5222   */\ntag_78:\n  pop\n    /* \"#utility.yul\":3925:5228   */\n  pop\n  pop\n  pop\n    /* \"#utility.yul\":3833:5228   */\n  pop\n  pop\n  jump\t// out\n    /* \"contracts/SIMPLESTORAGE.sol\":162:2165  contract SimpleStorage//contract is a keyword in solidity and tells the compiler that the next section of the code will define the contract ... */\ntag_5:\n  dataSize(sub_0)\n  dup1\n  dataOffset(sub_0)\n  0x00\n  codecopy\n  0x00\n  return\nstop\n\nsub_0: assembly {\n        /* \"contracts/SIMPLESTORAGE.sol\":162:2165  contract SimpleStorage//contract is a keyword in solidity and tells the compiler that the next section of the code will define the contract ... */\n      mstore(0x40, 0x80)\n      callvalue\n      dup1\n      iszero\n      tag_1\n      jumpi\n      revert(0x00, 0x00)\n    tag_1:\n      pop\n      jumpi(tag_2, lt(calldatasize, 0x04))\n      shr(0xe0, calldataload(0x00))\n      dup1\n      0x2e64cec1\n      eq\n      tag_3\n      jumpi\n      dup1\n      0x471f7cdf\n      eq\n      tag_4\n      jumpi\n      dup1\n      0x77ec2b55\n      eq\n      tag_5\n      jumpi\n      dup1\n      0x9e7a13ad\n      eq\n      tag_6\n      jumpi\n      dup1\n      0xd80deced\n      eq\n      tag_7\n      jumpi\n      dup1\n      0xe1b3202a\n      eq\n      tag_8\n      jumpi\n    tag_2:\n      revert(0x00, 0x00)\n        /* \"contracts/SIMPLESTORAGE.sol\":1123:1193  function retrieve() public view returns(uint){... */\n    tag_3:\n      tag_9\n      tag_10\n      jump\t// in\n    tag_9:\n      mload(0x40)\n      tag_11\n      swap2\n      swap1\n      tag_12\n      jump\t// in\n    tag_11:\n      mload(0x40)\n      dup1\n      swap2\n      sub\n      swap1\n      return\n        /* \"contracts/SIMPLESTORAGE.sol\":1553:1582  uint256 public favoriteNumber */\n    tag_4:\n      tag_13\n      tag_14\n      jump\t// in\n    tag_13:\n      mload(0x40)\n      tag_15\n      swap2\n      swap1\n      tag_12\n      jump\t// in\n    tag_15:\n      mload(0x40)\n      dup1\n      swap2\n      sub\n      swap1\n      return\n        /* \"contracts/SIMPLESTORAGE.sol\":1626:1688  People public person=People({favoriteNumber:2,name:\"Patrick\"}) */\n    tag_5:\n      tag_16\n      tag_17\n      jump\t// in\n    tag_16:\n      mload(0x40)\n      tag_18\n      swap3\n      swap2\n      swap1\n      tag_19\n      jump\t// in\n    tag_18:\n      mload(0x40)\n      dup1\n      swap2\n      sub\n      swap1\n      return\n        /* \"contracts/SIMPLESTORAGE.sol\":1894:1916  People[] public people */\n    tag_6:\n      tag_20\n      0x04\n      dup1\n      calldatasize\n      sub\n      dup2\n      add\n      swap1\n      tag_21\n      swap2\n      swap1\n      tag_22\n      jump\t// in\n    tag_21:\n      tag_23\n      jump\t// in\n    tag_20:\n      mload(0x40)\n      tag_24\n      swap3\n      swap2\n      swap1\n      tag_19\n      jump\t// in\n    tag_24:\n      mload(0x40)\n      dup1\n      swap2\n      sub\n      swap1\n      return\n        /* \"contracts/SIMPLESTORAGE.sol\":835:1035  function store(int _fanum) public//here we created a function called store , int_favnum is the variable that gets passed into this fn, public means the fn is public... */\n    tag_7:\n      tag_25\n      0x04\n      dup1\n      calldatasize\n      sub\n      dup2\n      add\n      swap1\n      tag_26\n      swap2\n      swap1\n      tag_27\n      jump\t// in\n    tag_26:\n      tag_28\n      jump\t// in\n    tag_25:\n      stop\n        /* \"contracts/SIMPLESTORAGE.sol\":1972:2162  function addperson(string memory _name,uint256 _favoriteNumber) public{... */\n    tag_8:\n      tag_29\n      0x04\n      dup1\n      calldatasize\n      sub\n      dup2\n      add\n      swap1\n      tag_30\n      swap2\n      swap1\n      tag_31\n      jump\t// in\n    tag_30:\n      tag_32\n      jump\t// in\n    tag_29:\n      stop\n        /* \"contracts/SIMPLESTORAGE.sol\":1123:1193  function retrieve() public view returns(uint){... */\n    tag_10:\n        /* \"contracts/SIMPLESTORAGE.sol\":1163:1167  uint */\n      0x00\n        /* \"contracts/SIMPLESTORAGE.sol\":1182:1188  favnum */\n      sload(0x01)\n        /* \"contracts/SIMPLESTORAGE.sol\":1175:1188  return favnum */\n      swap1\n      pop\n        /* \"contracts/SIMPLESTORAGE.sol\":1123:1193  function retrieve() public view returns(uint){... */\n      swap1\n      jump\t// out\n        /* \"contracts/SIMPLESTORAGE.sol\":1553:1582  uint256 public favoriteNumber */\n    tag_14:\n      sload(0x05)\n      dup2\n      jump\t// out\n        /* \"contracts/SIMPLESTORAGE.sol\":1626:1688  People public person=People({favoriteNumber:2,name:\"Patrick\"}) */\n    tag_17:\n      0x06\n      dup1\n      0x00\n      add\n      sload\n      swap1\n      dup1\n      0x01\n      add\n      dup1\n      sload\n      tag_34\n      swap1\n      tag_35\n      jump\t// in\n    tag_34:\n      dup1\n      0x1f\n      add\n      0x20\n      dup1\n      swap2\n      div\n      mul\n      0x20\n      add\n      mload(0x40)\n      swap1\n      dup2\n      add\n      0x40\n      mstore\n      dup1\n      swap3\n      swap2\n      swap1\n      dup2\n      dup2\n      mstore\n      0x20\n      add\n      dup3\n      dup1\n      sload\n      tag_36\n      swap1\n      tag_35\n      jump\t// in\n    tag_36:\n      dup1\n      iszero\n      tag_37\n      jumpi\n      dup1\n      0x1f\n      lt\n      tag_38\n      jumpi\n      0x0100\n      dup1\n      dup4\n      sload\n      div\n      mul\n      dup4\n      mstore\n      swap2\n      0x20\n      add\n      swap2\n      jump(tag_37)\n    tag_38:\n      dup3\n      add\n      swap2\n      swap1\n      0x00\n      mstore\n      keccak256(0x00, 0x20)\n      swap1\n    tag_39:\n      dup2\n      sload\n      dup2\n      mstore\n      swap1\n      0x01\n      add\n      swap1\n      0x20\n      add\n      dup1\n      dup4\n      gt\n      tag_39\n      jumpi\n      dup3\n      swap1\n      sub\n      0x1f\n      and\n      dup3\n      add\n      swap2\n    tag_37:\n      pop\n      pop\n      pop\n      pop\n      pop\n      swap1\n      pop\n      dup3\n      jump\t// out\n        /* \"contracts/SIMPLESTORAGE.sol\":1894:1916  People[] public people */\n    tag_23:\n      0x08\n      dup2\n      dup2\n      sload\n      dup2\n      lt\n      tag_40\n      jumpi\n      0x00\n      dup1\n      revert\n    tag_40:\n      swap1\n      0x00\n      mstore\n      keccak256(0x00, 0x20)\n      swap1\n      0x02\n      mul\n      add\n      0x00\n      swap2\n      pop\n      swap1\n      pop\n      dup1\n      0x00\n      add\n      sload\n      swap1\n      dup1\n      0x01\n      add\n      dup1\n      sload\n      tag_42\n      swap1\n      tag_35\n      jump\t// in\n    tag_42:\n      dup1\n      0x1f\n      add\n      0x20\n      dup1\n      swap2\n      div\n      mul\n      0x20\n      add\n      mload(0x40)\n      swap1\n      dup2\n      add\n      0x40\n      mstore\n      dup1\n      swap3\n      swap2\n      swap1\n      dup2\n      dup2\n      mstore\n      0x20\n      add\n      dup3\n      dup1\n      sload\n      tag_43\n      swap1\n      tag_35\n      jump\t// in\n    tag_43:\n      dup1\n      iszero\n      tag_44\n      jumpi\n      dup1\n      0x1f\n      lt\n      tag_45\n      jumpi\n      0x0100\n      dup1\n      dup4\n      sload\n      div\n      mul\n      dup4\n      mstore\n      swap2\n      0x20\n      add\n      swap2\n      jump(tag_44)\n    tag_45:\n      dup3\n      add\n      swap2\n      swap1\n      0x00\n      mstore\n      keccak256(0x00, 0x20)\n      swap1\n    tag_46:\n      dup2\n      sload\n      dup2\n      mstore\n      swap1\n      0x01\n      add\n      swap1\n      0x20\n      add\n      dup1\n      dup4\n      gt\n      tag_46\n      jumpi\n      dup3\n      swap1\n      sub\n      0x1f\n      and\n      dup3\n      add\n      swap2\n    tag_44:\n      pop\n      pop\n      pop\n      pop\n      pop\n      swap1\n      pop\n      dup3\n      jump\t// out\n        /* \"contracts/SIMPLESTORAGE.sol\":835:1035  function store(int _fanum) public//here we created a function called store , int_favnum is the variable that gets passed into this fn, public means the fn is public... */\n    tag_28:\n        /* \"contracts/SIMPLESTORAGE.sol\":1016:1022  _fanum */\n      dup1\n        /* \"contracts/SIMPLESTORAGE.sol\":1009:1014  fanum */\n      0x02\n        /* \"contracts/SIMPLESTORAGE.sol\":1009:1022  fanum= _fanum */\n      dup2\n      swap1\n      sstore\n      pop\n        /* \"contracts/SIMPLESTORAGE.sol\":835:1035  function store(int _fanum) public//here we created a function called store , int_favnum is the variable that gets passed into this fn, public means the fn is public... */\n      pop\n      jump\t// out\n        /* \"contracts/SIMPLESTORAGE.sol\":1972:2162  function addperson(string memory _name,uint256 _favoriteNumber) public{... */\n    tag_32:\n        /* \"contracts/SIMPLESTORAGE.sol\":2049:2072  People memory newPerson */\n      0x00\n        /* \"contracts/SIMPLESTORAGE.sol\":2075:2128  People({favoriteNumber: _favoriteNumber,name: _name}) */\n      mload(0x40)\n      dup1\n      0x40\n      add\n      0x40\n      mstore\n      dup1\n        /* \"contracts/SIMPLESTORAGE.sol\":2099:2114  _favoriteNumber */\n      dup4\n        /* \"contracts/SIMPLESTORAGE.sol\":2075:2128  People({favoriteNumber: _favoriteNumber,name: _name}) */\n      dup2\n      mstore\n      0x20\n      add\n        /* \"contracts/SIMPLESTORAGE.sol\":2121:2126  _name */\n      dup5\n        /* \"contracts/SIMPLESTORAGE.sol\":2075:2128  People({favoriteNumber: _favoriteNumber,name: _name}) */\n      dup2\n      mstore\n      pop\n        /* \"contracts/SIMPLESTORAGE.sol\":2049:2128  People memory newPerson = People({favoriteNumber: _favoriteNumber,name: _name}) */\n      swap1\n      pop\n        /* \"contracts/SIMPLESTORAGE.sol\":2135:2141  people */\n      0x08\n        /* \"contracts/SIMPLESTORAGE.sol\":2147:2156  newPerson */\n      dup2\n        /* \"contracts/SIMPLESTORAGE.sol\":2135:2157  people.push(newPerson) */\n      swap1\n      dup1\n      0x01\n      dup2\n      sload\n      add\n      dup1\n      dup3\n      sstore\n      dup1\n      swap2\n      pop\n      pop\n      0x01\n      swap1\n      sub\n      swap1\n      0x00\n      mstore\n      keccak256(0x00, 0x20)\n      swap1\n      0x02\n      mul\n      add\n      0x00\n      swap1\n      swap2\n      swap1\n      swap2\n      swap1\n      swap2\n      pop\n      0x00\n      dup3\n      add\n      mload\n      dup2\n      0x00\n      add\n      sstore\n      0x20\n      dup3\n      add\n      mload\n      dup2\n      0x01\n      add\n      swap1\n      dup2\n      tag_50\n      swap2\n      swap1\n      tag_51\n      jump\t// in\n    tag_50:\n      pop\n      pop\n      pop\n        /* \"contracts/SIMPLESTORAGE.sol\":2042:2162  {... */\n      pop\n        /* \"contracts/SIMPLESTORAGE.sol\":1972:2162  function addperson(string memory _name,uint256 _favoriteNumber) public{... */\n      pop\n      pop\n      jump\t// out\n        /* \"#utility.yul\":7:84   */\n    tag_52:\n        /* \"#utility.yul\":44:51   */\n      0x00\n        /* \"#utility.yul\":73:78   */\n      dup2\n        /* \"#utility.yul\":62:78   */\n      swap1\n      pop\n        /* \"#utility.yul\":7:84   */\n      swap2\n      swap1\n      pop\n      jump\t// out\n        /* \"#utility.yul\":90:208   */\n    tag_53:\n        /* \"#utility.yul\":177:201   */\n      tag_95\n        /* \"#utility.yul\":195:200   */\n      dup2\n        /* \"#utility.yul\":177:201   */\n      tag_52\n      jump\t// in\n    tag_95:\n        /* \"#utility.yul\":172:175   */\n      dup3\n        /* \"#utility.yul\":165:202   */\n      mstore\n        /* \"#utility.yul\":90:208   */\n      pop\n      pop\n      jump\t// out\n        /* \"#utility.yul\":214:436   */\n    tag_12:\n        /* \"#utility.yul\":307:311   */\n      0x00\n        /* \"#utility.yul\":345:347   */\n      0x20\n        /* \"#utility.yul\":334:343   */\n      dup3\n        /* \"#utility.yul\":330:348   */\n      add\n        /* \"#utility.yul\":322:348   */\n      swap1\n      pop\n        /* \"#utility.yul\":358:429   */\n      tag_97\n        /* \"#utility.yul\":426:427   */\n      0x00\n        /* \"#utility.yul\":415:424   */\n      dup4\n        /* \"#utility.yul\":411:428   */\n      add\n        /* \"#utility.yul\":402:408   */\n      dup5\n        /* \"#utility.yul\":358:429   */\n      tag_53\n      jump\t// in\n    tag_97:\n        /* \"#utility.yul\":214:436   */\n      swap3\n      swap2\n      pop\n      pop\n      jump\t// out\n        /* \"#utility.yul\":442:541   */\n    tag_54:\n        /* \"#utility.yul\":494:500   */\n      0x00\n        /* \"#utility.yul\":528:533   */\n      dup2\n        /* \"#utility.yul\":522:534   */\n      mload\n        /* \"#utility.yul\":512:534   */\n      swap1\n      pop\n        /* \"#utility.yul\":442:541   */\n      swap2\n      swap1\n      pop\n      jump\t// out\n        /* \"#utility.yul\":547:716   */\n    tag_55:\n        /* \"#utility.yul\":631:642   */\n      0x00\n        /* \"#utility.yul\":665:671   */\n      dup3\n        /* \"#utility.yul\":660:663   */\n      dup3\n        /* \"#utility.yul\":653:672   */\n      mstore\n        /* \"#utility.yul\":705:709   */\n      0x20\n        /* \"#utility.yul\":700:703   */\n      dup3\n        /* \"#utility.yul\":696:710   */\n      add\n        /* \"#utility.yul\":681:710   */\n      swap1\n      pop\n        /* \"#utility.yul\":547:716   */\n      swap3\n      swap2\n      pop\n      pop\n      jump\t// out\n        /* \"#utility.yul\":722:861   */\n    tag_56:\n        /* \"#utility.yul\":811:817   */\n      dup3\n        /* \"#utility.yul\":806:809   */\n      dup2\n        /* \"#utility.yul\":801:804   */\n      dup4\n        /* \"#utility.yul\":795:818   */\n      mcopy\n        /* \"#utility.yul\":852:853   */\n      0x00\n        /* \"#utility.yul\":843:849   */\n      dup4\n        /* \"#utility.yul\":838:841   */\n      dup4\n        /* \"#utility.yul\":834:850   */\n      add\n        /* \"#utility.yul\":827:854   */\n      mstore\n        /* \"#utility.yul\":722:861   */\n      pop\n      pop\n      pop\n      jump\t// out\n        /* \"#utility.yul\":867:969   */\n    tag_57:\n        /* \"#utility.yul\":908:914   */\n      0x00\n        /* \"#utility.yul\":959:961   */\n      0x1f\n        /* \"#utility.yul\":955:962   */\n      not\n        /* \"#utility.yul\":950:952   */\n      0x1f\n        /* \"#utility.yul\":943:948   */\n      dup4\n        /* \"#utility.yul\":939:953   */\n      add\n        /* \"#utility.yul\":935:963   */\n      and\n        /* \"#utility.yul\":925:963   */\n      swap1\n      pop\n        /* \"#utility.yul\":867:969   */\n      swap2\n      swap1\n      pop\n      jump\t// out\n        /* \"#utility.yul\":975:1352   */\n    tag_58:\n        /* \"#utility.yul\":1063:1066   */\n      0x00\n        /* \"#utility.yul\":1091:1130   */\n      tag_103\n        /* \"#utility.yul\":1124:1129   */\n      dup3\n        /* \"#utility.yul\":1091:1130   */\n      tag_54\n      jump\t// in\n    tag_103:\n        /* \"#utility.yul\":1146:1217   */\n      tag_104\n        /* \"#utility.yul\":1210:1216   */\n      dup2\n        /* \"#utility.yul\":1205:1208   */\n      dup6\n        /* \"#utility.yul\":1146:1217   */\n      tag_55\n      jump\t// in\n    tag_104:\n        /* \"#utility.yul\":1139:1217   */\n      swap4\n      pop\n        /* \"#utility.yul\":1226:1291   */\n      tag_105\n        /* \"#utility.yul\":1284:1290   */\n      dup2\n        /* \"#utility.yul\":1279:1282   */\n      dup6\n        /* \"#utility.yul\":1272:1276   */\n      0x20\n        /* \"#utility.yul\":1265:1270   */\n      dup7\n        /* \"#utility.yul\":1261:1277   */\n      add\n        /* \"#utility.yul\":1226:1291   */\n      tag_56\n      jump\t// in\n    tag_105:\n        /* \"#utility.yul\":1316:1345   */\n      tag_106\n        /* \"#utility.yul\":1338:1344   */\n      dup2\n        /* \"#utility.yul\":1316:1345   */\n      tag_57\n      jump\t// in\n    tag_106:\n        /* \"#utility.yul\":1311:1314   */\n      dup5\n        /* \"#utility.yul\":1307:1346   */\n      add\n        /* \"#utility.yul\":1300:1346   */\n      swap2\n      pop\n        /* \"#utility.yul\":1067:1352   */\n      pop\n        /* \"#utility.yul\":975:1352   */\n      swap3\n      swap2\n      pop\n      pop\n      jump\t// out\n        /* \"#utility.yul\":1358:1781   */\n    tag_19:\n        /* \"#utility.yul\":1499:1503   */\n      0x00\n        /* \"#utility.yul\":1537:1539   */\n      0x40\n        /* \"#utility.yul\":1526:1535   */\n      dup3\n        /* \"#utility.yul\":1522:1540   */\n      add\n        /* \"#utility.yul\":1514:1540   */\n      swap1\n      pop\n        /* \"#utility.yul\":1550:1621   */\n      tag_108\n        /* \"#utility.yul\":1618:1619   */\n      0x00\n        /* \"#utility.yul\":1607:1616   */\n      dup4\n        /* \"#utility.yul\":1603:1620   */\n      add\n        /* \"#utility.yul\":1594:1600   */\n      dup6\n        /* \"#utility.yul\":1550:1621   */\n      tag_53\n      jump\t// in\n    tag_108:\n        /* \"#utility.yul\":1668:1677   */\n      dup2\n        /* \"#utility.yul\":1662:1666   */\n      dup2\n        /* \"#utility.yul\":1658:1678   */\n      sub\n        /* \"#utility.yul\":1653:1655   */\n      0x20\n        /* \"#utility.yul\":1642:1651   */\n      dup4\n        /* \"#utility.yul\":1638:1656   */\n      add\n        /* \"#utility.yul\":1631:1679   */\n      mstore\n        /* \"#utility.yul\":1696:1774   */\n      tag_109\n        /* \"#utility.yul\":1769:1773   */\n      dup2\n        /* \"#utility.yul\":1760:1766   */\n      dup5\n        /* \"#utility.yul\":1696:1774   */\n      tag_58\n      jump\t// in\n    tag_109:\n        /* \"#utility.yul\":1688:1774   */\n      swap1\n      pop\n        /* \"#utility.yul\":1358:1781   */\n      swap4\n      swap3\n      pop\n      pop\n      pop\n      jump\t// out\n        /* \"#utility.yul\":1787:1862   */\n    tag_59:\n        /* \"#utility.yul\":1820:1826   */\n      0x00\n        /* \"#utility.yul\":1853:1855   */\n      0x40\n        /* \"#utility.yul\":1847:1856   */\n      mload\n        /* \"#utility.yul\":1837:1856   */\n      swap1\n      pop\n        /* \"#utility.yul\":1787:1862   */\n      swap1\n      jump\t// out\n        /* \"#utility.yul\":1868:1985   */\n    tag_60:\n        /* \"#utility.yul\":1977:1978   */\n      0x00\n        /* \"#utility.yul\":1974:1975   */\n      0x00\n        /* \"#utility.yul\":1967:1979   */\n      revert\n        /* \"#utility.yul\":1991:2108   */\n    tag_61:\n        /* \"#utility.yul\":2100:2101   */\n      0x00\n        /* \"#utility.yul\":2097:2098   */\n      0x00\n        /* \"#utility.yul\":2090:2102   */\n      revert\n        /* \"#utility.yul\":2114:2236   */\n    tag_62:\n        /* \"#utility.yul\":2187:2211   */\n      tag_114\n        /* \"#utility.yul\":2205:2210   */\n      dup2\n        /* \"#utility.yul\":2187:2211   */\n      tag_52\n      jump\t// in\n    tag_114:\n        /* \"#utility.yul\":2180:2185   */\n      dup2\n        /* \"#utility.yul\":2177:2212   */\n      eq\n        /* \"#utility.yul\":2167:2230   */\n      tag_115\n      jumpi\n        /* \"#utility.yul\":2226:2227   */\n      0x00\n        /* \"#utility.yul\":2223:2224   */\n      0x00\n        /* \"#utility.yul\":2216:2228   */\n      revert\n        /* \"#utility.yul\":2167:2230   */\n    tag_115:\n        /* \"#utility.yul\":2114:2236   */\n      pop\n      jump\t// out\n        /* \"#utility.yul\":2242:2381   */\n    tag_63:\n        /* \"#utility.yul\":2288:2293   */\n      0x00\n        /* \"#utility.yul\":2326:2332   */\n      dup2\n        /* \"#utility.yul\":2313:2333   */\n      calldataload\n        /* \"#utility.yul\":2304:2333   */\n      swap1\n      pop\n        /* \"#utility.yul\":2342:2375   */\n      tag_117\n        /* \"#utility.yul\":2369:2374   */\n      dup2\n        /* \"#utility.yul\":2342:2375   */\n      tag_62\n      jump\t// in\n    tag_117:\n        /* \"#utility.yul\":2242:2381   */\n      swap3\n      swap2\n      pop\n      pop\n      jump\t// out\n        /* \"#utility.yul\":2387:2716   */\n    tag_22:\n        /* \"#utility.yul\":2446:2452   */\n      0x00\n        /* \"#utility.yul\":2495:2497   */\n      0x20\n        /* \"#utility.yul\":2483:2492   */\n      dup3\n        /* \"#utility.yul\":2474:2481   */\n      dup5\n        /* \"#utility.yul\":2470:2493   */\n      sub\n        /* \"#utility.yul\":2466:2498   */\n      slt\n        /* \"#utility.yul\":2463:2582   */\n      iszero\n      tag_119\n      jumpi\n        /* \"#utility.yul\":2501:2580   */\n      tag_120\n      tag_60\n      jump\t// in\n    tag_120:\n        /* \"#utility.yul\":2463:2582   */\n    tag_119:\n        /* \"#utility.yul\":2621:2622   */\n      0x00\n        /* \"#utility.yul\":2646:2699   */\n      tag_121\n        /* \"#utility.yul\":2691:2698   */\n      dup5\n        /* \"#utility.yul\":2682:2688   */\n      dup3\n        /* \"#utility.yul\":2671:2680   */\n      dup6\n        /* \"#utility.yul\":2667:2689   */\n      add\n        /* \"#utility.yul\":2646:2699   */\n      tag_63\n      jump\t// in\n    tag_121:\n        /* \"#utility.yul\":2636:2699   */\n      swap2\n      pop\n        /* \"#utility.yul\":2592:2709   */\n      pop\n        /* \"#utility.yul\":2387:2716   */\n      swap3\n      swap2\n      pop\n      pop\n      jump\t// out\n        /* \"#utility.yul\":2722:2798   */\n    tag_64:\n        /* \"#utility.yul\":2758:2765   */\n      0x00\n        /* \"#utility.yul\":2787:2792   */\n      dup2\n        /* \"#utility.yul\":2776:2792   */\n      swap1\n      pop\n        /* \"#utility.yul\":2722:2798   */\n      swap2\n      swap1\n      pop\n      jump\t// out\n        /* \"#utility.yul\":2804:2924   */\n    tag_65:\n        /* \"#utility.yul\":2876:2899   */\n      tag_124\n        /* \"#utility.yul\":2893:2898   */\n      dup2\n        /* \"#utility.yul\":2876:2899   */\n      tag_64\n      jump\t// in\n    tag_124:\n        /* \"#utility.yul\":2869:2874   */\n      dup2\n        /* \"#utility.yul\":2866:2900   */\n      eq\n        /* \"#utility.yul\":2856:2918   */\n      tag_125\n      jumpi\n        /* \"#utility.yul\":2914:2915   */\n      0x00\n        /* \"#utility.yul\":2911:2912   */\n      0x00\n        /* \"#utility.yul\":2904:2916   */\n      revert\n        /* \"#utility.yul\":2856:2918   */\n    tag_125:\n        /* \"#utility.yul\":2804:2924   */\n      pop\n      jump\t// out\n        /* \"#utility.yul\":2930:3067   */\n    tag_66:\n        /* \"#utility.yul\":2975:2980   */\n      0x00\n        /* \"#utility.yul\":3013:3019   */\n      dup2\n        /* \"#utility.yul\":3000:3020   */\n      calldataload\n        /* \"#utility.yul\":2991:3020   */\n      swap1\n      pop\n        /* \"#utility.yul\":3029:3061   */\n      tag_127\n        /* \"#utility.yul\":3055:3060   */\n      dup2\n        /* \"#utility.yul\":3029:3061   */\n      tag_65\n      jump\t// in\n    tag_127:\n        /* \"#utility.yul\":2930:3067   */\n      swap3\n      swap2\n      pop\n      pop\n      jump\t// out\n        /* \"#utility.yul\":3073:3400   */\n    tag_27:\n        /* \"#utility.yul\":3131:3137   */\n      0x00\n        /* \"#utility.yul\":3180:3182   */\n      0x20\n        /* \"#utility.yul\":3168:3177   */\n      dup3\n        /* \"#utility.yul\":3159:3166   */\n      dup5\n        /* \"#utility.yul\":3155:3178   */\n      sub\n        /* \"#utility.yul\":3151:3183   */\n      slt\n        /* \"#utility.yul\":3148:3267   */\n      iszero\n      tag_129\n      jumpi\n        /* \"#utility.yul\":3186:3265   */\n      tag_130\n      tag_60\n      jump\t// in\n    tag_130:\n        /* \"#utility.yul\":3148:3267   */\n    tag_129:\n        /* \"#utility.yul\":3306:3307   */\n      0x00\n        /* \"#utility.yul\":3331:3383   */\n      tag_131\n        /* \"#utility.yul\":3375:3382   */\n      dup5\n        /* \"#utility.yul\":3366:3372   */\n      dup3\n        /* \"#utility.yul\":3355:3364   */\n      dup6\n        /* \"#utility.yul\":3351:3373   */\n      add\n        /* \"#utility.yul\":3331:3383   */\n      tag_66\n      jump\t// in\n    tag_131:\n        /* \"#utility.yul\":3321:3383   */\n      swap2\n      pop\n        /* \"#utility.yul\":3277:3393   */\n      pop\n        /* \"#utility.yul\":3073:3400   */\n      swap3\n      swap2\n      pop\n      pop\n      jump\t// out\n        /* \"#utility.yul\":3406:3523   */\n    tag_67:\n        /* \"#utility.yul\":3515:3516   */\n      0x00\n        /* \"#utility.yul\":3512:3513   */\n      0x00\n        /* \"#utility.yul\":3505:3517   */\n      revert\n        /* \"#utility.yul\":3529:3646   */\n    tag_68:\n        /* \"#utility.yul\":3638:3639   */\n      0x00\n        /* \"#utility.yul\":3635:3636   */\n      0x00\n        /* \"#utility.yul\":3628:3640   */\n      revert\n        /* \"#utility.yul\":3652:3832   */\n    tag_69:\n        /* \"#utility.yul\":3700:3777   */\n      0x4e487b7100000000000000000000000000000000000000000000000000000000\n        /* \"#utility.yul\":3697:3698   */\n      0x00\n        /* \"#utility.yul\":3690:3778   */\n      mstore\n        /* \"#utility.yul\":3797:3801   */\n      0x41\n        /* \"#utility.yul\":3794:3795   */\n      0x04\n        /* \"#utility.yul\":3787:3802   */\n      mstore\n        /* \"#utility.yul\":3821:3825   */\n      0x24\n        /* \"#utility.yul\":3818:3819   */\n      0x00\n        /* \"#utility.yul\":3811:3826   */\n      revert\n        /* \"#utility.yul\":3838:4119   */\n    tag_70:\n        /* \"#utility.yul\":3921:3948   */\n      tag_136\n        /* \"#utility.yul\":3943:3947   */\n      dup3\n        /* \"#utility.yul\":3921:3948   */\n      tag_57\n      jump\t// in\n    tag_136:\n        /* \"#utility.yul\":3913:3919   */\n      dup2\n        /* \"#utility.yul\":3909:3949   */\n      add\n        /* \"#utility.yul\":4051:4057   */\n      dup2\n        /* \"#utility.yul\":4039:4049   */\n      dup2\n        /* \"#utility.yul\":4036:4058   */\n      lt\n        /* \"#utility.yul\":4015:4033   */\n      0xffffffffffffffff\n        /* \"#utility.yul\":4003:4013   */\n      dup3\n        /* \"#utility.yul\":4000:4034   */\n      gt\n        /* \"#utility.yul\":3997:4059   */\n      or\n        /* \"#utility.yul\":3994:4082   */\n      iszero\n      tag_137\n      jumpi\n        /* \"#utility.yul\":4062:4080   */\n      tag_138\n      tag_69\n      jump\t// in\n    tag_138:\n        /* \"#utility.yul\":3994:4082   */\n    tag_137:\n        /* \"#utility.yul\":4102:4112   */\n      dup1\n        /* \"#utility.yul\":4098:4100   */\n      0x40\n        /* \"#utility.yul\":4091:4113   */\n      mstore\n        /* \"#utility.yul\":3881:4119   */\n      pop\n        /* \"#utility.yul\":3838:4119   */\n      pop\n      pop\n      jump\t// out\n        /* \"#utility.yul\":4125:4254   */\n    tag_71:\n        /* \"#utility.yul\":4159:4165   */\n      0x00\n        /* \"#utility.yul\":4186:4206   */\n      tag_140\n      tag_59\n      jump\t// in\n    tag_140:\n        /* \"#utility.yul\":4176:4206   */\n      swap1\n      pop\n        /* \"#utility.yul\":4215:4248   */\n      tag_141\n        /* \"#utility.yul\":4243:4247   */\n      dup3\n        /* \"#utility.yul\":4235:4241   */\n      dup3\n        /* \"#utility.yul\":4215:4248   */\n      tag_70\n      jump\t// in\n    tag_141:\n        /* \"#utility.yul\":4125:4254   */\n      swap2\n      swap1\n      pop\n      jump\t// out\n        /* \"#utility.yul\":4260:4568   */\n    tag_72:\n        /* \"#utility.yul\":4322:4326   */\n      0x00\n        /* \"#utility.yul\":4412:4430   */\n      0xffffffffffffffff\n        /* \"#utility.yul\":4404:4410   */\n      dup3\n        /* \"#utility.yul\":4401:4431   */\n      gt\n        /* \"#utility.yul\":4398:4454   */\n      iszero\n      tag_143\n      jumpi\n        /* \"#utility.yul\":4434:4452   */\n      tag_144\n      tag_69\n      jump\t// in\n    tag_144:\n        /* \"#utility.yul\":4398:4454   */\n    tag_143:\n        /* \"#utility.yul\":4472:4501   */\n      tag_145\n        /* \"#utility.yul\":4494:4500   */\n      dup3\n        /* \"#utility.yul\":4472:4501   */\n      tag_57\n      jump\t// in\n    tag_145:\n        /* \"#utility.yul\":4464:4501   */\n      swap1\n      pop\n        /* \"#utility.yul\":4556:4560   */\n      0x20\n        /* \"#utility.yul\":4550:4554   */\n      dup2\n        /* \"#utility.yul\":4546:4561   */\n      add\n        /* \"#utility.yul\":4538:4561   */\n      swap1\n      pop\n        /* \"#utility.yul\":4260:4568   */\n      swap2\n      swap1\n      pop\n      jump\t// out\n        /* \"#utility.yul\":4574:4722   */\n    tag_73:\n        /* \"#utility.yul\":4672:4678   */\n      dup3\n        /* \"#utility.yul\":4667:4670   */\n      dup2\n        /* \"#utility.yul\":4662:4665   */\n      dup4\n        /* \"#utility.yul\":4649:4679   */\n      calldatacopy\n        /* \"#utility.yul\":4713:4714   */\n      0x00\n        /* \"#utility.yul\":4704:4710   */\n      dup4\n        /* \"#utility.yul\":4699:4702   */\n      dup4\n        /* \"#utility.yul\":4695:4711   */\n      add\n        /* \"#utility.yul\":4688:4715   */\n      mstore\n        /* \"#utility.yul\":4574:4722   */\n      pop\n      pop\n      pop\n      jump\t// out\n        /* \"#utility.yul\":4728:5153   */\n    tag_74:\n        /* \"#utility.yul\":4806:4811   */\n      0x00\n        /* \"#utility.yul\":4831:4897   */\n      tag_148\n        /* \"#utility.yul\":4847:4896   */\n      tag_149\n        /* \"#utility.yul\":4889:4895   */\n      dup5\n        /* \"#utility.yul\":4847:4896   */\n      tag_72\n      jump\t// in\n    tag_149:\n        /* \"#utility.yul\":4831:4897   */\n      tag_71\n      jump\t// in\n    tag_148:\n        /* \"#utility.yul\":4822:4897   */\n      swap1\n      pop\n        /* \"#utility.yul\":4920:4926   */\n      dup3\n        /* \"#utility.yul\":4913:4918   */\n      dup2\n        /* \"#utility.yul\":4906:4927   */\n      mstore\n        /* \"#utility.yul\":4958:4962   */\n      0x20\n        /* \"#utility.yul\":4951:4956   */\n      dup2\n        /* \"#utility.yul\":4947:4963   */\n      add\n        /* \"#utility.yul\":4996:4999   */\n      dup5\n        /* \"#utility.yul\":4987:4993   */\n      dup5\n        /* \"#utility.yul\":4982:4985   */\n      dup5\n        /* \"#utility.yul\":4978:4994   */\n      add\n        /* \"#utility.yul\":4975:5000   */\n      gt\n        /* \"#utility.yul\":4972:5084   */\n      iszero\n      tag_150\n      jumpi\n        /* \"#utility.yul\":5003:5082   */\n      tag_151\n      tag_68\n      jump\t// in\n    tag_151:\n        /* \"#utility.yul\":4972:5084   */\n    tag_150:\n        /* \"#utility.yul\":5093:5147   */\n      tag_152\n        /* \"#utility.yul\":5140:5146   */\n      dup5\n        /* \"#utility.yul\":5135:5138   */\n      dup3\n        /* \"#utility.yul\":5130:5133   */\n      dup6\n        /* \"#utility.yul\":5093:5147   */\n      tag_73\n      jump\t// in\n    tag_152:\n        /* \"#utility.yul\":4812:5153   */\n      pop\n        /* \"#utility.yul\":4728:5153   */\n      swap4\n      swap3\n      pop\n      pop\n      pop\n      jump\t// out\n        /* \"#utility.yul\":5173:5513   */\n    tag_75:\n        /* \"#utility.yul\":5229:5234   */\n      0x00\n        /* \"#utility.yul\":5278:5281   */\n      dup3\n        /* \"#utility.yul\":5271:5275   */\n      0x1f\n        /* \"#utility.yul\":5263:5269   */\n      dup4\n        /* \"#utility.yul\":5259:5276   */\n      add\n        /* \"#utility.yul\":5255:5282   */\n      slt\n        /* \"#utility.yul\":5245:5367   */\n      tag_154\n      jumpi\n        /* \"#utility.yul\":5286:5365   */\n      tag_155\n      tag_67\n      jump\t// in\n    tag_155:\n        /* \"#utility.yul\":5245:5367   */\n    tag_154:\n        /* \"#utility.yul\":5403:5409   */\n      dup2\n        /* \"#utility.yul\":5390:5410   */\n      calldataload\n        /* \"#utility.yul\":5428:5507   */\n      tag_156\n        /* \"#utility.yul\":5503:5506   */\n      dup5\n        /* \"#utility.yul\":5495:5501   */\n      dup3\n        /* \"#utility.yul\":5488:5492   */\n      0x20\n        /* \"#utility.yul\":5480:5486   */\n      dup7\n        /* \"#utility.yul\":5476:5493   */\n      add\n        /* \"#utility.yul\":5428:5507   */\n      tag_74\n      jump\t// in\n    tag_156:\n        /* \"#utility.yul\":5419:5507   */\n      swap2\n      pop\n        /* \"#utility.yul\":5235:5513   */\n      pop\n        /* \"#utility.yul\":5173:5513   */\n      swap3\n      swap2\n      pop\n      pop\n      jump\t// out\n        /* \"#utility.yul\":5519:6173   */\n    tag_31:\n        /* \"#utility.yul\":5597:5603   */\n      0x00\n        /* \"#utility.yul\":5605:5611   */\n      0x00\n        /* \"#utility.yul\":5654:5656   */\n      0x40\n        /* \"#utility.yul\":5642:5651   */\n      dup4\n        /* \"#utility.yul\":5633:5640   */\n      dup6\n        /* \"#utility.yul\":5629:5652   */\n      sub\n        /* \"#utility.yul\":5625:5657   */\n      slt\n        /* \"#utility.yul\":5622:5741   */\n      iszero\n      tag_158\n      jumpi\n        /* \"#utility.yul\":5660:5739   */\n      tag_159\n      tag_60\n      jump\t// in\n    tag_159:\n        /* \"#utility.yul\":5622:5741   */\n    tag_158:\n        /* \"#utility.yul\":5808:5809   */\n      0x00\n        /* \"#utility.yul\":5797:5806   */\n      dup4\n        /* \"#utility.yul\":5793:5810   */\n      add\n        /* \"#utility.yul\":5780:5811   */\n      calldataload\n        /* \"#utility.yul\":5838:5856   */\n      0xffffffffffffffff\n        /* \"#utility.yul\":5830:5836   */\n      dup2\n        /* \"#utility.yul\":5827:5857   */\n      gt\n        /* \"#utility.yul\":5824:5941   */\n      iszero\n      tag_160\n      jumpi\n        /* \"#utility.yul\":5860:5939   */\n      tag_161\n      tag_61\n      jump\t// in\n    tag_161:\n        /* \"#utility.yul\":5824:5941   */\n    tag_160:\n        /* \"#utility.yul\":5965:6028   */\n      tag_162\n        /* \"#utility.yul\":6020:6027   */\n      dup6\n        /* \"#utility.yul\":6011:6017   */\n      dup3\n        /* \"#utility.yul\":6000:6009   */\n      dup7\n        /* \"#utility.yul\":5996:6018   */\n      add\n        /* \"#utility.yul\":5965:6028   */\n      tag_75\n      jump\t// in\n    tag_162:\n        /* \"#utility.yul\":5955:6028   */\n      swap3\n      pop\n        /* \"#utility.yul\":5751:6038   */\n      pop\n        /* \"#utility.yul\":6077:6079   */\n      0x20\n        /* \"#utility.yul\":6103:6156   */\n      tag_163\n        /* \"#utility.yul\":6148:6155   */\n      dup6\n        /* \"#utility.yul\":6139:6145   */\n      dup3\n        /* \"#utility.yul\":6128:6137   */\n      dup7\n        /* \"#utility.yul\":6124:6146   */\n      add\n        /* \"#utility.yul\":6103:6156   */\n      tag_63\n      jump\t// in\n    tag_163:\n        /* \"#utility.yul\":6093:6156   */\n      swap2\n      pop\n        /* \"#utility.yul\":6048:6166   */\n      pop\n        /* \"#utility.yul\":5519:6173   */\n      swap3\n      pop\n      swap3\n      swap1\n      pop\n      jump\t// out\n        /* \"#utility.yul\":6179:6359   */\n    tag_76:\n        /* \"#utility.yul\":6227:6304   */\n      0x4e487b7100000000000000000000000000000000000000000000000000000000\n        /* \"#utility.yul\":6224:6225   */\n      0x00\n        /* \"#utility.yul\":6217:6305   */\n      mstore\n        /* \"#utility.yul\":6324:6328   */\n      0x22\n        /* \"#utility.yul\":6321:6322   */\n      0x04\n        /* \"#utility.yul\":6314:6329   */\n      mstore\n        /* \"#utility.yul\":6348:6352   */\n      0x24\n        /* \"#utility.yul\":6345:6346   */\n      0x00\n        /* \"#utility.yul\":6338:6353   */\n      revert\n        /* \"#utility.yul\":6365:6685   */\n    tag_35:\n        /* \"#utility.yul\":6409:6415   */\n      0x00\n        /* \"#utility.yul\":6446:6447   */\n      0x02\n        /* \"#utility.yul\":6440:6444   */\n      dup3\n        /* \"#utility.yul\":6436:6448   */\n      div\n        /* \"#utility.yul\":6426:6448   */\n      swap1\n      pop\n        /* \"#utility.yul\":6493:6494   */\n      0x01\n        /* \"#utility.yul\":6487:6491   */\n      dup3\n        /* \"#utility.yul\":6483:6495   */\n      and\n        /* \"#utility.yul\":6514:6532   */\n      dup1\n        /* \"#utility.yul\":6504:6585   */\n      tag_166\n      jumpi\n        /* \"#utility.yul\":6570:6574   */\n      0x7f\n        /* \"#utility.yul\":6562:6568   */\n      dup3\n        /* \"#utility.yul\":6558:6575   */\n      and\n        /* \"#utility.yul\":6548:6575   */\n      swap2\n      pop\n        /* \"#utility.yul\":6504:6585   */\n    tag_166:\n        /* \"#utility.yul\":6632:6634   */\n      0x20\n        /* \"#utility.yul\":6624:6630   */\n      dup3\n        /* \"#utility.yul\":6621:6635   */\n      lt\n        /* \"#utility.yul\":6601:6619   */\n      dup2\n        /* \"#utility.yul\":6598:6636   */\n      sub\n        /* \"#utility.yul\":6595:6679   */\n      tag_167\n      jumpi\n        /* \"#utility.yul\":6651:6669   */\n      tag_168\n      tag_76\n      jump\t// in\n    tag_168:\n        /* \"#utility.yul\":6595:6679   */\n    tag_167:\n        /* \"#utility.yul\":6416:6685   */\n      pop\n        /* \"#utility.yul\":6365:6685   */\n      swap2\n      swap1\n      pop\n      jump\t// out\n        /* \"#utility.yul\":6691:6832   */\n    tag_77:\n        /* \"#utility.yul\":6740:6744   */\n      0x00\n        /* \"#utility.yul\":6763:6766   */\n      dup2\n        /* \"#utility.yul\":6755:6766   */\n      swap1\n      pop\n        /* \"#utility.yul\":6786:6789   */\n      dup2\n        /* \"#utility.yul\":6783:6784   */\n      0x00\n        /* \"#utility.yul\":6776:6790   */\n      mstore\n        /* \"#utility.yul\":6820:6824   */\n      0x20\n        /* \"#utility.yul\":6817:6818   */\n      0x00\n        /* \"#utility.yul\":6807:6825   */\n      keccak256\n        /* \"#utility.yul\":6799:6825   */\n      swap1\n      pop\n        /* \"#utility.yul\":6691:6832   */\n      swap2\n      swap1\n      pop\n      jump\t// out\n        /* \"#utility.yul\":6838:6931   */\n    tag_78:\n        /* \"#utility.yul\":6875:6881   */\n      0x00\n        /* \"#utility.yul\":6922:6924   */\n      0x20\n        /* \"#utility.yul\":6917:6919   */\n      0x1f\n        /* \"#utility.yul\":6910:6915   */\n      dup4\n        /* \"#utility.yul\":6906:6920   */\n      add\n        /* \"#utility.yul\":6902:6925   */\n      div\n        /* \"#utility.yul\":6892:6925   */\n      swap1\n      pop\n        /* \"#utility.yul\":6838:6931   */\n      swap2\n      swap1\n      pop\n      jump\t// out\n        /* \"#utility.yul\":6937:7044   */\n    tag_79:\n        /* \"#utility.yul\":6981:6989   */\n      0x00\n        /* \"#utility.yul\":7031:7036   */\n      dup3\n        /* \"#utility.yul\":7025:7029   */\n      dup3\n        /* \"#utility.yul\":7021:7037   */\n      shl\n        /* \"#utility.yul\":7000:7037   */\n      swap1\n      pop\n        /* \"#utility.yul\":6937:7044   */\n      swap3\n      swap2\n      pop\n      pop\n      jump\t// out\n        /* \"#utility.yul\":7050:7443   */\n    tag_80:\n        /* \"#utility.yul\":7119:7125   */\n      0x00\n        /* \"#utility.yul\":7169:7170   */\n      0x08\n        /* \"#utility.yul\":7157:7167   */\n      dup4\n        /* \"#utility.yul\":7153:7171   */\n      mul\n        /* \"#utility.yul\":7192:7289   */\n      tag_173\n        /* \"#utility.yul\":7222:7288   */\n      0xffffffffffffffffffffffffffffffffffffffffffffffffffffffffffffffff\n        /* \"#utility.yul\":7211:7220   */\n      dup3\n        /* \"#utility.yul\":7192:7289   */\n      tag_79\n      jump\t// in\n    tag_173:\n        /* \"#utility.yul\":7310:7349   */\n      tag_174\n        /* \"#utility.yul\":7340:7348   */\n      dup7\n        /* \"#utility.yul\":7329:7338   */\n      dup4\n        /* \"#utility.yul\":7310:7349   */\n      tag_79\n      jump\t// in\n    tag_174:\n        /* \"#utility.yul\":7298:7349   */\n      swap6\n      pop\n        /* \"#utility.yul\":7382:7386   */\n      dup1\n        /* \"#utility.yul\":7378:7387   */\n      not\n        /* \"#utility.yul\":7371:7376   */\n      dup5\n        /* \"#utility.yul\":7367:7388   */\n      and\n        /* \"#utility.yul\":7358:7388   */\n      swap4\n      pop\n        /* \"#utility.yul\":7431:7435   */\n      dup1\n        /* \"#utility.yul\":7421:7429   */\n      dup7\n        /* \"#utility.yul\":7417:7436   */\n      and\n        /* \"#utility.yul\":7410:7415   */\n      dup5\n        /* \"#utility.yul\":7407:7437   */\n      or\n        /* \"#utility.yul\":7397:7437   */\n      swap3\n      pop\n        /* \"#utility.yul\":7126:7443   */\n      pop\n      pop\n        /* \"#utility.yul\":7050:7443   */\n      swap4\n      swap3\n      pop\n      pop\n      pop\n      jump\t// out\n        /* \"#utility.yul\":7449:7509   */\n    tag_81:\n        /* \"#utility.yul\":7477:7480   */\n      0x00\n        /* \"#utility.yul\":7498:7503   */\n      dup2\n        /* \"#utility.yul\":7491:7503   */\n      swap1\n      pop\n        /* \"#utility.yul\":7449:7509   */\n      swap2\n      swap1\n      pop\n      jump\t// out\n        /* \"#utility.yul\":7515:7657   */\n    tag_82:\n        /* \"#utility.yul\":7565:7574   */\n      0x00\n        /* \"#utility.yul\":7598:7651   */\n      tag_177\n        /* \"#utility.yul\":7616:7650   */\n      tag_178\n        /* \"#utility.yul\":7625:7649   */\n      tag_179\n        /* \"#utility.yul\":7643:7648   */\n      dup5\n        /* \"#utility.yul\":7625:7649   */\n      tag_52\n      jump\t// in\n    tag_179:\n        /* \"#utility.yul\":7616:7650   */\n      tag_81\n      jump\t// in\n    tag_178:\n        /* \"#utility.yul\":7598:7651   */\n      tag_52\n      jump\t// in\n    tag_177:\n        /* \"#utility.yul\":7585:7651   */\n      swap1\n      pop\n        /* \"#utility.yul\":7515:7657   */\n      swap2\n      swap1\n      pop\n      jump\t// out\n        /* \"#utility.yul\":7663:7738   */\n    tag_83:\n        /* \"#utility.yul\":7706:7709   */\n      0x00\n        /* \"#utility.yul\":7727:7732   */\n      dup2\n        /* \"#utility.yul\":7720:7732   */\n      swap1\n      pop\n        /* \"#utility.yul\":7663:7738   */\n      swap2\n      swap1\n      pop\n      jump\t// out\n        /* \"#utility.yul\":7744:8013   */\n    tag_84:\n        /* \"#utility.yul\":7854:7893   */\n      tag_182\n        /* \"#utility.yul\":7885:7892   */\n      dup4\n        /* \"#utility.yul\":7854:7893   */\n      tag_82\n      jump\t// in\n    tag_182:\n        /* \"#utility.yul\":7915:8006   */\n      tag_183\n        /* \"#utility.yul\":7964:8005   */\n      tag_184\n        /* \"#utility.yul\":7988:8004   */\n      dup3\n        /* \"#utility.yul\":7964:8005   */\n      tag_83\n      jump\t// in\n    tag_184:\n        /* \"#utility.yul\":7956:7962   */\n      dup5\n        /* \"#utility.yul\":7949:7953   */\n      dup5\n        /* \"#utility.yul\":7943:7954   */\n      sload\n        /* \"#utility.yul\":7915:8006   */\n      tag_80\n      jump\t// in\n    tag_183:\n        /* \"#utility.yul\":7909:7913   */\n      dup3\n        /* \"#utility.yul\":7902:8007   */\n      sstore\n        /* \"#utility.yul\":7820:8013   */\n      pop\n        /* \"#utility.yul\":7744:8013   */\n      pop\n      pop\n      pop\n      jump\t// out\n        /* \"#utility.yul\":8019:8092   */\n    tag_85:\n        /* \"#utility.yul\":8064:8067   */\n      0x00\n        /* \"#utility.yul\":8085:8086   */\n      0x00\n        /* \"#utility.yul\":8078:8086   */\n      swap1\n      pop\n        /* \"#utility.yul\":8019:8092   */\n      swap1\n      jump\t// out\n        /* \"#utility.yul\":8098:8287   */\n    tag_86:\n        /* \"#utility.yul\":8175:8207   */\n      tag_187\n      tag_85\n      jump\t// in\n    tag_187:\n        /* \"#utility.yul\":8216:8281   */\n      tag_188\n        /* \"#utility.yul\":8274:8280   */\n      dup2\n        /* \"#utility.yul\":8266:8272   */\n      dup5\n        /* \"#utility.yul\":8260:8264   */\n      dup5\n        /* \"#utility.yul\":8216:8281   */\n      tag_84\n      jump\t// in\n    tag_188:\n        /* \"#utility.yul\":8151:8287   */\n      pop\n        /* \"#utility.yul\":8098:8287   */\n      pop\n      pop\n      jump\t// out\n        /* \"#utility.yul\":8293:8479   */\n    tag_87:\n        /* \"#utility.yul\":8353:8473   */\n    tag_190:\n        /* \"#utility.yul\":8370:8373   */\n      dup2\n        /* \"#utility.yul\":8363:8368   */\n      dup2\n        /* \"#utility.yul\":8360:8374   */\n      lt\n        /* \"#utility.yul\":8353:8473   */\n      iszero\n      tag_192\n      jumpi\n        /* \"#utility.yul\":8424:8463   */\n      tag_193\n        /* \"#utility.yul\":8461:8462   */\n      0x00\n        /* \"#utility.yul\":8454:8459   */\n      dup3\n        /* \"#utility.yul\":8424:8463   */\n      tag_86\n      jump\t// in\n    tag_193:\n        /* \"#utility.yul\":8397:8398   */\n      0x01\n        /* \"#utility.yul\":8390:8395   */\n      dup2\n        /* \"#utility.yul\":8386:8399   */\n      add\n        /* \"#utility.yul\":8377:8399   */\n      swap1\n      pop\n        /* \"#utility.yul\":8353:8473   */\n      jump(tag_190)\n    tag_192:\n        /* \"#utility.yul\":8293:8479   */\n      pop\n      pop\n      jump\t// out\n        /* \"#utility.yul\":8485:9028   */\n    tag_88:\n        /* \"#utility.yul\":8586:8588   */\n      0x1f\n        /* \"#utility.yul\":8581:8584   */\n      dup3\n        /* \"#utility.yul\":8578:8589   */\n      gt\n        /* \"#utility.yul\":8575:9021   */\n      iszero\n      tag_195\n      jumpi\n        /* \"#utility.yul\":8620:8658   */\n      tag_196\n        /* \"#utility.yul\":8652:8657   */\n      dup2\n        /* \"#utility.yul\":8620:8658   */\n      tag_77\n      jump\t// in\n    tag_196:\n        /* \"#utility.yul\":8704:8733   */\n      tag_197\n        /* \"#utility.yul\":8722:8732   */\n      dup5\n        /* \"#utility.yul\":8704:8733   */\n      tag_78\n      jump\t// in\n    tag_197:\n        /* \"#utility.yul\":8694:8702   */\n      dup2\n        /* \"#utility.yul\":8690:8734   */\n      add\n        /* \"#utility.yul\":8887:8889   */\n      0x20\n        /* \"#utility.yul\":8875:8885   */\n      dup6\n        /* \"#utility.yul\":8872:8890   */\n      lt\n        /* \"#utility.yul\":8869:8918   */\n      iszero\n      tag_198\n      jumpi\n        /* \"#utility.yul\":8908:8916   */\n      dup2\n        /* \"#utility.yul\":8893:8916   */\n      swap1\n      pop\n        /* \"#utility.yul\":8869:8918   */\n    tag_198:\n        /* \"#utility.yul\":8931:9011   */\n      tag_199\n        /* \"#utility.yul\":8987:9009   */\n      tag_200\n        /* \"#utility.yul\":9005:9008   */\n      dup6\n        /* \"#utility.yul\":8987:9009   */\n      tag_78\n      jump\t// in\n    tag_200:\n        /* \"#utility.yul\":8977:8985   */\n      dup4\n        /* \"#utility.yul\":8973:9010   */\n      add\n        /* \"#utility.yul\":8960:8971   */\n      dup3\n        /* \"#utility.yul\":8931:9011   */\n      tag_87\n      jump\t// in\n    tag_199:\n        /* \"#utility.yul\":8590:9021   */\n      pop\n      pop\n        /* \"#utility.yul\":8575:9021   */\n    tag_195:\n        /* \"#utility.yul\":8485:9028   */\n      pop\n      pop\n      pop\n      jump\t// out\n        /* \"#utility.yul\":9034:9151   */\n    tag_89:\n        /* \"#utility.yul\":9088:9096   */\n      0x00\n        /* \"#utility.yul\":9138:9143   */\n      dup3\n        /* \"#utility.yul\":9132:9136   */\n      dup3\n        /* \"#utility.yul\":9128:9144   */\n      shr\n        /* \"#utility.yul\":9107:9144   */\n      swap1\n      pop\n        /* \"#utility.yul\":9034:9151   */\n      swap3\n      swap2\n      pop\n      pop\n      jump\t// out\n        /* \"#utility.yul\":9157:9326   */\n    tag_90:\n        /* \"#utility.yul\":9201:9207   */\n      0x00\n        /* \"#utility.yul\":9234:9285   */\n      tag_203\n        /* \"#utility.yul\":9282:9283   */\n      0x00\n        /* \"#utility.yul\":9278:9284   */\n      not\n        /* \"#utility.yul\":9270:9275   */\n      dup5\n        /* \"#utility.yul\":9267:9268   */\n      0x08\n        /* \"#utility.yul\":9263:9276   */\n      mul\n        /* \"#utility.yul\":9234:9285   */\n      tag_89\n      jump\t// in\n    tag_203:\n        /* \"#utility.yul\":9230:9286   */\n      not\n        /* \"#utility.yul\":9315:9319   */\n      dup1\n        /* \"#utility.yul\":9309:9313   */\n      dup4\n        /* \"#utility.yul\":9305:9320   */\n      and\n        /* \"#utility.yul\":9295:9320   */\n      swap2\n      pop\n        /* \"#utility.yul\":9208:9326   */\n      pop\n        /* \"#utility.yul\":9157:9326   */\n      swap3\n      swap2\n      pop\n      pop\n      jump\t// out\n        /* \"#utility.yul\":9331:9626   */\n    tag_91:\n        /* \"#utility.yul\":9407:9411   */\n      0x00\n        /* \"#utility.yul\":9553:9582   */\n      tag_205\n        /* \"#utility.yul\":9578:9581   */\n      dup4\n        /* \"#utility.yul\":9572:9576   */\n      dup4\n        /* \"#utility.yul\":9553:9582   */\n      tag_90\n      jump\t// in\n    tag_205:\n        /* \"#utility.yul\":9545:9582   */\n      swap2\n      pop\n        /* \"#utility.yul\":9615:9618   */\n      dup3\n        /* \"#utility.yul\":9612:9613   */\n      0x02\n        /* \"#utility.yul\":9608:9619   */\n      mul\n        /* \"#utility.yul\":9602:9606   */\n      dup3\n        /* \"#utility.yul\":9599:9620   */\n      or\n        /* \"#utility.yul\":9591:9620   */\n      swap1\n      pop\n        /* \"#utility.yul\":9331:9626   */\n      swap3\n      swap2\n      pop\n      pop\n      jump\t// out\n        /* \"#utility.yul\":9631:11026   */\n    tag_51:\n        /* \"#utility.yul\":9748:9785   */\n      tag_207\n        /* \"#utility.yul\":9781:9784   */\n      dup3\n        /* \"#utility.yul\":9748:9785   */\n      tag_54\n      jump\t// in\n    tag_207:\n        /* \"#utility.yul\":9850:9868   */\n      0xffffffffffffffff\n        /* \"#utility.yul\":9842:9848   */\n      dup2\n        /* \"#utility.yul\":9839:9869   */\n      gt\n        /* \"#utility.yul\":9836:9892   */\n      iszero\n      tag_208\n      jumpi\n        /* \"#utility.yul\":9872:9890   */\n      tag_209\n      tag_69\n      jump\t// in\n    tag_209:\n        /* \"#utility.yul\":9836:9892   */\n    tag_208:\n        /* \"#utility.yul\":9916:9954   */\n      tag_210\n        /* \"#utility.yul\":9948:9952   */\n      dup3\n        /* \"#utility.yul\":9942:9953   */\n      sload\n        /* \"#utility.yul\":9916:9954   */\n      tag_35\n      jump\t// in\n    tag_210:\n        /* \"#utility.yul\":10001:10068   */\n      tag_211\n        /* \"#utility.yul\":10061:10067   */\n      dup3\n        /* \"#utility.yul\":10053:10059   */\n      dup3\n        /* \"#utility.yul\":10047:10051   */\n      dup6\n        /* \"#utility.yul\":10001:10068   */\n      tag_88\n      jump\t// in\n    tag_211:\n        /* \"#utility.yul\":10095:10096   */\n      0x00\n        /* \"#utility.yul\":10119:10123   */\n      0x20\n        /* \"#utility.yul\":10106:10123   */\n      swap1\n      pop\n        /* \"#utility.yul\":10151:10153   */\n      0x1f\n        /* \"#utility.yul\":10143:10149   */\n      dup4\n        /* \"#utility.yul\":10140:10154   */\n      gt\n        /* \"#utility.yul\":10168:10169   */\n      0x01\n        /* \"#utility.yul\":10163:10781   */\n      dup2\n      eq\n      tag_213\n      jumpi\n        /* \"#utility.yul\":10825:10826   */\n      0x00\n        /* \"#utility.yul\":10842:10848   */\n      dup5\n        /* \"#utility.yul\":10839:10916   */\n      iszero\n      tag_214\n      jumpi\n        /* \"#utility.yul\":10891:10900   */\n      dup3\n        /* \"#utility.yul\":10886:10889   */\n      dup8\n        /* \"#utility.yul\":10882:10901   */\n      add\n        /* \"#utility.yul\":10876:10902   */\n      mload\n        /* \"#utility.yul\":10867:10902   */\n      swap1\n      pop\n        /* \"#utility.yul\":10839:10916   */\n    tag_214:\n        /* \"#utility.yul\":10942:11009   */\n      tag_215\n        /* \"#utility.yul\":11002:11008   */\n      dup6\n        /* \"#utility.yul\":10995:11000   */\n      dup3\n        /* \"#utility.yul\":10942:11009   */\n      tag_91\n      jump\t// in\n    tag_215:\n        /* \"#utility.yul\":10936:10940   */\n      dup7\n        /* \"#utility.yul\":10929:11010   */\n      sstore\n        /* \"#utility.yul\":10798:11020   */\n      pop\n        /* \"#utility.yul\":10133:11020   */\n      jump(tag_212)\n        /* \"#utility.yul\":10163:10781   */\n    tag_213:\n        /* \"#utility.yul\":10215:10219   */\n      0x1f\n        /* \"#utility.yul\":10211:10220   */\n      not\n        /* \"#utility.yul\":10203:10209   */\n      dup5\n        /* \"#utility.yul\":10199:10221   */\n      and\n        /* \"#utility.yul\":10249:10286   */\n      tag_216\n        /* \"#utility.yul\":10281:10285   */\n      dup7\n        /* \"#utility.yul\":10249:10286   */\n      tag_77\n      jump\t// in\n    tag_216:\n        /* \"#utility.yul\":10308:10309   */\n      0x00\n        /* \"#utility.yul\":10322:10530   */\n    tag_217:\n        /* \"#utility.yul\":10336:10343   */\n      dup3\n        /* \"#utility.yul\":10333:10334   */\n      dup2\n        /* \"#utility.yul\":10330:10344   */\n      lt\n        /* \"#utility.yul\":10322:10530   */\n      iszero\n      tag_219\n      jumpi\n        /* \"#utility.yul\":10415:10424   */\n      dup5\n        /* \"#utility.yul\":10410:10413   */\n      dup10\n        /* \"#utility.yul\":10406:10425   */\n      add\n        /* \"#utility.yul\":10400:10426   */\n      mload\n        /* \"#utility.yul\":10392:10398   */\n      dup3\n        /* \"#utility.yul\":10385:10427   */\n      sstore\n        /* \"#utility.yul\":10466:10467   */\n      0x01\n        /* \"#utility.yul\":10458:10464   */\n      dup3\n        /* \"#utility.yul\":10454:10468   */\n      add\n        /* \"#utility.yul\":10444:10468   */\n      swap2\n      pop\n        /* \"#utility.yul\":10513:10515   */\n      0x20\n        /* \"#utility.yul\":10502:10511   */\n      dup6\n        /* \"#utility.yul\":10498:10516   */\n      add\n        /* \"#utility.yul\":10485:10516   */\n      swap5\n      pop\n        /* \"#utility.yul\":10359:10363   */\n      0x20\n        /* \"#utility.yul\":10356:10357   */\n      dup2\n        /* \"#utility.yul\":10352:10364   */\n      add\n        /* \"#utility.yul\":10347:10364   */\n      swap1\n      pop\n        /* \"#utility.yul\":10322:10530   */\n      jump(tag_217)\n    tag_219:\n        /* \"#utility.yul\":10558:10564   */\n      dup7\n        /* \"#utility.yul\":10549:10556   */\n      dup4\n        /* \"#utility.yul\":10546:10565   */\n      lt\n        /* \"#utility.yul\":10543:10722   */\n      iszero\n      tag_220\n      jumpi\n        /* \"#utility.yul\":10616:10625   */\n      dup5\n        /* \"#utility.yul\":10611:10614   */\n      dup10\n        /* \"#utility.yul\":10607:10626   */\n      add\n        /* \"#utility.yul\":10601:10627   */\n      mload\n        /* \"#utility.yul\":10659:10707   */\n      tag_221\n        /* \"#utility.yul\":10701:10705   */\n      0x1f\n        /* \"#utility.yul\":10693:10699   */\n      dup10\n        /* \"#utility.yul\":10689:10706   */\n      and\n        /* \"#utility.yul\":10678:10687   */\n      dup3\n        /* \"#utility.yul\":10659:10707   */\n      tag_90\n      jump\t// in\n    tag_221:\n        /* \"#utility.yul\":10651:10657   */\n      dup4\n        /* \"#utility.yul\":10644:10708   */\n      sstore\n        /* \"#utility.yul\":10566:10722   */\n      pop\n        /* \"#utility.yul\":10543:10722   */\n    tag_220:\n        /* \"#utility.yul\":10768:10769   */\n      0x01\n        /* \"#utility.yul\":10764:10765   */\n      0x02\n        /* \"#utility.yul\":10756:10762   */\n      dup9\n        /* \"#utility.yul\":10752:10766   */\n      mul\n        /* \"#utility.yul\":10748:10770   */\n      add\n        /* \"#utility.yul\":10742:10746   */\n      dup9\n        /* \"#utility.yul\":10735:10771   */\n      sstore\n        /* \"#utility.yul\":10170:10781   */\n      pop\n      pop\n      pop\n        /* \"#utility.yul\":10133:11020   */\n    tag_212:\n      pop\n        /* \"#utility.yul\":9723:11026   */\n      pop\n      pop\n      pop\n        /* \"#utility.yul\":9631:11026   */\n      pop\n      pop\n      jump\t// out\n\n    auxdata: 0xa2646970667358221220ef38681a739884d34768bbf710a14a6b6e92586dfebc734862bd6e861113a74464736f6c634300081f0033\n}\n",
				"bytecode": {
					"linkReferences": {},
					"object": "608060405260015f5f6101000a81548160ff021916908315150217905550607b6001556040518060400160405280600481526020017f6669766500000000000000000000000000000000000000000000000000000000815250600390816100669190610376565b50731066618d0973e44efd2fe5114fd18b64c6420abb60045f6101000a81548173ffffffffffffffffffffffffffffffffffffffff021916908373ffffffffffffffffffffffffffffffffffffffff1602179055506040518060400160405280600281526020016040518060400160405280600781526020017f5061747269636b0000000000000000000000000000000000000000000000000081525081525060065f820151815f015560208201518160010190816101259190610376565b505050348015610133575f5ffd5b50610445565b5f81519050919050565b7f4e487b71000000000000000000000000000000000000000000000000000000005f52604160045260245ffd5b7f4e487b71000000000000000000000000000000000000000000000000000000005f52602260045260245ffd5b5f60028204905060018216806101b457607f821691505b6020821081036101c7576101c6610170565b5b50919050565b5f819050815f5260205f209050919050565b5f6020601f8301049050919050565b5f82821b905092915050565b5f600883026102297fffffffffffffffffffffffffffffffffffffffffffffffffffffffffffffffff826101ee565b61023386836101ee565b95508019841693508086168417925050509392505050565b5f819050919050565b5f819050919050565b5f61027761027261026d8461024b565b610254565b61024b565b9050919050565b5f819050919050565b6102908361025d565b6102a461029c8261027e565b8484546101fa565b825550505050565b5f5f905090565b6102bb6102ac565b6102c6818484610287565b505050565b5b818110156102e9576102de5f826102b3565b6001810190506102cc565b5050565b601f82111561032e576102ff816101cd565b610308846101df565b81016020851015610317578190505b61032b610323856101df565b8301826102cb565b50505b505050565b5f82821c905092915050565b5f61034e5f1984600802610333565b1980831691505092915050565b5f610366838361033f565b9150826002028217905092915050565b61037f82610139565b67ffffffffffffffff81111561039857610397610143565b5b6103a2825461019d565b6103ad8282856102ed565b5f60209050601f8311600181146103de575f84156103cc578287015190505b6103d6858261035b565b86555061043d565b601f1984166103ec866101cd565b5f5b82811015610413578489015182556001820191506020850194506020810190506103ee565b86831015610430578489015161042c601f89168261033f565b8355505b6001600288020188555050505b505050505050565b61090e806104525f395ff3fe608060405234801561000f575f5ffd5b5060043610610060575f3560e01c80632e64cec114610064578063471f7cdf1461008257806377ec2b55146100a05780639e7a13ad146100bf578063d80deced146100f0578063e1b3202a1461010c575b5f5ffd5b61006c610128565b604051610079919061030b565b60405180910390f35b61008a610131565b604051610097919061030b565b60405180910390f35b6100a8610137565b6040516100b6929190610394565b60405180910390f35b6100d960048036038101906100d491906103fd565b6101ce565b6040516100e7929190610394565b60405180910390f35b61010a6004803603810190610105919061045b565b610283565b005b610126600480360381019061012191906105b2565b61028d565b005b5f600154905090565b60055481565b6006805f01549080600101805461014d90610639565b80601f016020809104026020016040519081016040528092919081815260200182805461017990610639565b80156101c45780601f1061019b576101008083540402835291602001916101c4565b820191905f5260205f20905b8154815290600101906020018083116101a757829003601f168201915b5050505050905082565b600881815481106101dd575f80fd5b905f5260205f2090600202015f91509050805f01549080600101805461020290610639565b80601f016020809104026020016040519081016040528092919081815260200182805461022e90610639565b80156102795780601f1061025057610100808354040283529160200191610279565b820191905f5260205f20905b81548152906001019060200180831161025c57829003601f168201915b5050505050905082565b8060028190555050565b5f6040518060400160405280838152602001848152509050600881908060018154018082558091505060019003905f5260205f2090600202015f909190919091505f820151815f015560208201518160010190816102eb9190610809565b505050505050565b5f819050919050565b610305816102f3565b82525050565b5f60208201905061031e5f8301846102fc565b92915050565b5f81519050919050565b5f82825260208201905092915050565b8281835e5f83830152505050565b5f601f19601f8301169050919050565b5f61036682610324565b610370818561032e565b935061038081856020860161033e565b6103898161034c565b840191505092915050565b5f6040820190506103a75f8301856102fc565b81810360208301526103b9818461035c565b90509392505050565b5f604051905090565b5f5ffd5b5f5ffd5b6103dc816102f3565b81146103e6575f5ffd5b50565b5f813590506103f7816103d3565b92915050565b5f60208284031215610412576104116103cb565b5b5f61041f848285016103e9565b91505092915050565b5f819050919050565b61043a81610428565b8114610444575f5ffd5b50565b5f8135905061045581610431565b92915050565b5f602082840312156104705761046f6103cb565b5b5f61047d84828501610447565b91505092915050565b5f5ffd5b5f5ffd5b7f4e487b71000000000000000000000000000000000000000000000000000000005f52604160045260245ffd5b6104c48261034c565b810181811067ffffffffffffffff821117156104e3576104e261048e565b5b80604052505050565b5f6104f56103c2565b905061050182826104bb565b919050565b5f67ffffffffffffffff8211156105205761051f61048e565b5b6105298261034c565b9050602081019050919050565b828183375f83830152505050565b5f61055661055184610506565b6104ec565b9050828152602081018484840111156105725761057161048a565b5b61057d848285610536565b509392505050565b5f82601f83011261059957610598610486565b5b81356105a9848260208601610544565b91505092915050565b5f5f604083850312156105c8576105c76103cb565b5b5f83013567ffffffffffffffff8111156105e5576105e46103cf565b5b6105f185828601610585565b9250506020610602858286016103e9565b9150509250929050565b7f4e487b71000000000000000000000000000000000000000000000000000000005f52602260045260245ffd5b5f600282049050600182168061065057607f821691505b6020821081036106635761066261060c565b5b50919050565b5f819050815f5260205f209050919050565b5f6020601f8301049050919050565b5f82821b905092915050565b5f600883026106c57fffffffffffffffffffffffffffffffffffffffffffffffffffffffffffffffff8261068a565b6106cf868361068a565b95508019841693508086168417925050509392505050565b5f819050919050565b5f61070a610705610700846102f3565b6106e7565b6102f3565b9050919050565b5f819050919050565b610723836106f0565b61073761072f82610711565b848454610696565b825550505050565b5f5f905090565b61074e61073f565b61075981848461071a565b505050565b5b8181101561077c576107715f82610746565b60018101905061075f565b5050565b601f8211156107c15761079281610669565b61079b8461067b565b810160208510156107aa578190505b6107be6107b68561067b565b83018261075e565b50505b505050565b5f82821c905092915050565b5f6107e15f19846008026107c6565b1980831691505092915050565b5f6107f983836107d2565b9150826002028217905092915050565b61081282610324565b67ffffffffffffffff81111561082b5761082a61048e565b5b6108358254610639565b610840828285610780565b5f60209050601f831160018114610871575f841561085f578287015190505b61086985826107ee565b8655506108d0565b601f19841661087f86610669565b5f5b828110156108a657848901518255600182019150602085019450602081019050610881565b868310156108c357848901516108bf601f8916826107d2565b8355505b6001600288020188555050505b50505050505056fea2646970667358221220ef38681a739884d34768bbf710a14a6b6e92586dfebc734862bd6e861113a74464736f6c634300081f0033",
					"opcodes": "PUSH1 0x80 PUSH1 0x40 MSTORE PUSH1 0x1 PUSH0 PUSH0 PUSH2 0x100 EXP DUP2 SLOAD DUP2 PUSH1 0xFF MUL NOT AND SWAP1 DUP4 ISZERO ISZERO MUL OR SWAP1 SSTORE POP PUSH1 0x7B PUSH1 0x1 SSTORE PUSH1 0x40 MLOAD DUP1 PUSH1 0x40 ADD PUSH1 0x40 MSTORE DUP1 PUSH1 0x4 DUP2 MSTORE PUSH1 0x20 ADD PUSH32 0x6669766500000000000000000000000000000000000000000000000000000000 DUP2 MSTORE POP PUSH1 0x3 SWAP1 DUP2 PUSH2 0x66 SWAP2 SWAP1 PUSH2 0x376 JUMP JUMPDEST POP PUSH20 0x1066618D0973E44EFD2FE5114FD18B64C6420ABB PUSH1 0x4 PUSH0 PUSH2 0x100 EXP DUP2 SLOAD DUP2 PUSH20 0xFFFFFFFFFFFFFFFFFFFFFFFFFFFFFFFFFFFFFFFF MUL NOT AND SWAP1 DUP4 PUSH20 0xFFFFFFFFFFFFFFFFFFFFFFFFFFFFFFFFFFFFFFFF AND MUL OR SWAP1 SSTORE POP PUSH1 0x40 MLOAD DUP1 PUSH1 0x40 ADD PUSH1 0x40 MSTORE DUP1 PUSH1 0x2 DUP2 MSTORE PUSH1 0x20 ADD PUSH1 0x40 MLOAD DUP1 PUSH1 0x40 ADD PUSH1 0x40 MSTORE DUP1 PUSH1 0x7 DUP2 MSTORE PUSH1 0x20 ADD PUSH32 0x5061747269636B00000000000000000000000000000000000000000000000000 DUP2 MSTORE POP DUP2 MSTORE POP PUSH1 0x6 PUSH0 DUP3 ADD MLOAD DUP2 PUSH0 ADD SSTORE PUSH1 0x20 DUP3 ADD MLOAD DUP2 PUSH1 0x1 ADD SWAP1 DUP2 PUSH2 0x125 SWAP2 SWAP1 PUSH2 0x376 JUMP JUMPDEST POP POP POP CALLVALUE DUP1 ISZERO PUSH2 0x133 JUMPI PUSH0 PUSH0 REVERT JUMPDEST POP PUSH2 0x445 JUMP JUMPDEST PUSH0 DUP2 MLOAD SWAP1 POP SWAP2 SWAP1 POP JUMP JUMPDEST PUSH32 0x4E487B7100000000000000000000000000000000000000000000000000000000 PUSH0 MSTORE PUSH1 0x41 PUSH1 0x4 MSTORE PUSH1 0x24 PUSH0 REVERT JUMPDEST PUSH32 0x4E487B7100000000000000000000000000000000000000000000000000000000 PUSH0 MSTORE PUSH1 0x22 PUSH1 0x4 MSTORE PUSH1 0x24 PUSH0 REVERT JUMPDEST PUSH0 PUSH1 0x2 DUP3 DIV SWAP1 POP PUSH1 0x1 DUP3 AND DUP1 PUSH2 0x1B4 JUMPI PUSH1 0x7F DUP3 AND SWAP2 POP JUMPDEST PUSH1 0x20 DUP3 LT DUP2 SUB PUSH2 0x1C7 JUMPI PUSH2 0x1C6 PUSH2 0x170 JUMP JUMPDEST JUMPDEST POP SWAP2 SWAP1 POP JUMP JUMPDEST PUSH0 DUP2 SWAP1 POP DUP2 PUSH0 MSTORE PUSH1 0x20 PUSH0 KECCAK256 SWAP1 POP SWAP2 SWAP1 POP JUMP JUMPDEST PUSH0 PUSH1 0x20 PUSH1 0x1F DUP4 ADD DIV SWAP1 POP SWAP2 SWAP1 POP JUMP JUMPDEST PUSH0 DUP3 DUP3 SHL SWAP1 POP SWAP3 SWAP2 POP POP JUMP JUMPDEST PUSH0 PUSH1 0x8 DUP4 MUL PUSH2 0x229 PUSH32 0xFFFFFFFFFFFFFFFFFFFFFFFFFFFFFFFFFFFFFFFFFFFFFFFFFFFFFFFFFFFFFFFF DUP3 PUSH2 0x1EE JUMP JUMPDEST PUSH2 0x233 DUP7 DUP4 PUSH2 0x1EE JUMP JUMPDEST SWAP6 POP DUP1 NOT DUP5 AND SWAP4 POP DUP1 DUP7 AND DUP5 OR SWAP3 POP POP POP SWAP4 SWAP3 POP POP POP JUMP JUMPDEST PUSH0 DUP2 SWAP1 POP SWAP2 SWAP1 POP JUMP JUMPDEST PUSH0 DUP2 SWAP1 POP SWAP2 SWAP1 POP JUMP JUMPDEST PUSH0 PUSH2 0x277 PUSH2 0x272 PUSH2 0x26D DUP5 PUSH2 0x24B JUMP JUMPDEST PUSH2 0x254 JUMP JUMPDEST PUSH2 0x24B JUMP JUMPDEST SWAP1 POP SWAP2 SWAP1 POP JUMP JUMPDEST PUSH0 DUP2 SWAP1 POP SWAP2 SWAP1 POP JUMP JUMPDEST PUSH2 0x290 DUP4 PUSH2 0x25D JUMP JUMPDEST PUSH2 0x2A4 PUSH2 0x29C DUP3 PUSH2 0x27E JUMP JUMPDEST DUP5 DUP5 SLOAD PUSH2 0x1FA JUMP JUMPDEST DUP3 SSTORE POP POP POP POP JUMP JUMPDEST PUSH0 PUSH0 SWAP1 POP SWAP1 JUMP JUMPDEST PUSH2 0x2BB PUSH2 0x2AC JUMP JUMPDEST PUSH2 0x2C6 DUP2 DUP5 DUP5 PUSH2 0x287 JUMP JUMPDEST POP POP POP JUMP JUMPDEST JUMPDEST DUP2 DUP2 LT ISZERO PUSH2 0x2E9 JUMPI PUSH2 0x2DE PUSH0 DUP3 PUSH2 0x2B3 JUMP JUMPDEST PUSH1 0x1 DUP2 ADD SWAP1 POP PUSH2 0x2CC JUMP JUMPDEST POP POP JUMP JUMPDEST PUSH1 0x1F DUP3 GT ISZERO PUSH2 0x32E JUMPI PUSH2 0x2FF DUP2 PUSH2 0x1CD JUMP JUMPDEST PUSH2 0x308 DUP5 PUSH2 0x1DF JUMP JUMPDEST DUP2 ADD PUSH1 0x20 DUP6 LT ISZERO PUSH2 0x317 JUMPI DUP2 SWAP1 POP JUMPDEST PUSH2 0x32B PUSH2 0x323 DUP6 PUSH2 0x1DF JUMP JUMPDEST DUP4 ADD DUP3 PUSH2 0x2CB JUMP JUMPDEST POP POP JUMPDEST POP POP POP JUMP JUMPDEST PUSH0 DUP3 DUP3 SHR SWAP1 POP SWAP3 SWAP2 POP POP JUMP JUMPDEST PUSH0 PUSH2 0x34E PUSH0 NOT DUP5 PUSH1 0x8 MUL PUSH2 0x333 JUMP JUMPDEST NOT DUP1 DUP4 AND SWAP2 POP POP SWAP3 SWAP2 POP POP JUMP JUMPDEST PUSH0 PUSH2 0x366 DUP4 DUP4 PUSH2 0x33F JUMP JUMPDEST SWAP2 POP DUP3 PUSH1 0x2 MUL DUP3 OR SWAP1 POP SWAP3 SWAP2 POP POP JUMP JUMPDEST PUSH2 0x37F DUP3 PUSH2 0x139 JUMP JUMPDEST PUSH8 0xFFFFFFFFFFFFFFFF DUP2 GT ISZERO PUSH2 0x398 JUMPI PUSH2 0x397 PUSH2 0x143 JUMP JUMPDEST JUMPDEST PUSH2 0x3A2 DUP3 SLOAD PUSH2 0x19D JUMP JUMPDEST PUSH2 0x3AD DUP3 DUP3 DUP6 PUSH2 0x2ED JUMP JUMPDEST PUSH0 PUSH1 0x20 SWAP1 POP PUSH1 0x1F DUP4 GT PUSH1 0x1 DUP2 EQ PUSH2 0x3DE JUMPI PUSH0 DUP5 ISZERO PUSH2 0x3CC JUMPI DUP3 DUP8 ADD MLOAD SWAP1 POP JUMPDEST PUSH2 0x3D6 DUP6 DUP3 PUSH2 0x35B JUMP JUMPDEST DUP7 SSTORE POP PUSH2 0x43D JUMP JUMPDEST PUSH1 0x1F NOT DUP5 AND PUSH2 0x3EC DUP7 PUSH2 0x1CD JUMP JUMPDEST PUSH0 JUMPDEST DUP3 DUP2 LT ISZERO PUSH2 0x413 JUMPI DUP5 DUP10 ADD MLOAD DUP3 SSTORE PUSH1 0x1 DUP3 ADD SWAP2 POP PUSH1 0x20 DUP6 ADD SWAP5 POP PUSH1 0x20 DUP2 ADD SWAP1 POP PUSH2 0x3EE JUMP JUMPDEST DUP7 DUP4 LT ISZERO PUSH2 0x430 JUMPI DUP5 DUP10 ADD MLOAD PUSH2 0x42C PUSH1 0x1F DUP10 AND DUP3 PUSH2 0x33F JUMP JUMPDEST DUP4 SSTORE POP JUMPDEST PUSH1 0x1 PUSH1 0x2 DUP9 MUL ADD DUP9 SSTORE POP POP POP JUMPDEST POP POP POP POP POP POP JUMP JUMPDEST PUSH2 0x90E DUP1 PUSH2 0x452 PUSH0 CODECOPY PUSH0 RETURN INVALID PUSH1 0x80 PUSH1 0x40 MSTORE CALLVALUE DUP1 ISZERO PUSH2 0xF JUMPI PUSH0 PUSH0 REVERT JUMPDEST POP PUSH1 0x4 CALLDATASIZE LT PUSH2 0x60 JUMPI PUSH0 CALLDATALOAD PUSH1 0xE0 SHR DUP1 PUSH4 0x2E64CEC1 EQ PUSH2 0x64 JUMPI DUP1 PUSH4 0x471F7CDF EQ PUSH2 0x82 JUMPI DUP1 PUSH4 0x77EC2B55 EQ PUSH2 0xA0 JUMPI DUP1 PUSH4 0x9E7A13AD EQ PUSH2 0xBF JUMPI DUP1 PUSH4 0xD80DECED EQ PUSH2 0xF0 JUMPI DUP1 PUSH4 0xE1B3202A EQ PUSH2 0x10C JUMPI JUMPDEST PUSH0 PUSH0 REVERT JUMPDEST PUSH2 0x6C PUSH2 0x128 JUMP JUMPDEST PUSH1 0x40 MLOAD PUSH2 0x79 SWAP2 SWAP1 PUSH2 0x30B JUMP JUMPDEST PUSH1 0x40 MLOAD DUP1 SWAP2 SUB SWAP1 RETURN JUMPDEST PUSH2 0x8A PUSH2 0x131 JUMP JUMPDEST PUSH1 0x40 MLOAD PUSH2 0x97 SWAP2 SWAP1 PUSH2 0x30B JUMP JUMPDEST PUSH1 0x40 MLOAD DUP1 SWAP2 SUB SWAP1 RETURN JUMPDEST PUSH2 0xA8 PUSH2 0x137 JUMP JUMPDEST PUSH1 0x40 MLOAD PUSH2 0xB6 SWAP3 SWAP2 SWAP1 PUSH2 0x394 JUMP JUMPDEST PUSH1 0x40 MLOAD DUP1 SWAP2 SUB SWAP1 RETURN JUMPDEST PUSH2 0xD9 PUSH1 0x4 DUP1 CALLDATASIZE SUB DUP2 ADD SWAP1 PUSH2 0xD4 SWAP2 SWAP1 PUSH2 0x3FD JUMP JUMPDEST PUSH2 0x1CE JUMP JUMPDEST PUSH1 0x40 MLOAD PUSH2 0xE7 SWAP3 SWAP2 SWAP1 PUSH2 0x394 JUMP JUMPDEST PUSH1 0x40 MLOAD DUP1 SWAP2 SUB SWAP1 RETURN JUMPDEST PUSH2 0x10A PUSH1 0x4 DUP1 CALLDATASIZE SUB DUP2 ADD SWAP1 PUSH2 0x105 SWAP2 SWAP1 PUSH2 0x45B JUMP JUMPDEST PUSH2 0x283 JUMP JUMPDEST STOP JUMPDEST PUSH2 0x126 PUSH1 0x4 DUP1 CALLDATASIZE SUB DUP2 ADD SWAP1 PUSH2 0x121 SWAP2 SWAP1 PUSH2 0x5B2 JUMP JUMPDEST PUSH2 0x28D JUMP JUMPDEST STOP JUMPDEST PUSH0 PUSH1 0x1 SLOAD SWAP1 POP SWAP1 JUMP JUMPDEST PUSH1 0x5 SLOAD DUP2 JUMP JUMPDEST PUSH1 0x6 DUP1 PUSH0 ADD SLOAD SWAP1 DUP1 PUSH1 0x1 ADD DUP1 SLOAD PUSH2 0x14D SWAP1 PUSH2 0x639 JUMP JUMPDEST DUP1 PUSH1 0x1F ADD PUSH1 0x20 DUP1 SWAP2 DIV MUL PUSH1 0x20 ADD PUSH1 0x40 MLOAD SWAP1 DUP2 ADD PUSH1 0x40 MSTORE DUP1 SWAP3 SWAP2 SWAP1 DUP2 DUP2 MSTORE PUSH1 0x20 ADD DUP3 DUP1 SLOAD PUSH2 0x179 SWAP1 PUSH2 0x639 JUMP JUMPDEST DUP1 ISZERO PUSH2 0x1C4 JUMPI DUP1 PUSH1 0x1F LT PUSH2 0x19B JUMPI PUSH2 0x100 DUP1 DUP4 SLOAD DIV MUL DUP4 MSTORE SWAP2 PUSH1 0x20 ADD SWAP2 PUSH2 0x1C4 JUMP JUMPDEST DUP3 ADD SWAP2 SWAP1 PUSH0 MSTORE PUSH1 0x20 PUSH0 KECCAK256 SWAP1 JUMPDEST DUP2 SLOAD DUP2 MSTORE SWAP1 PUSH1 0x1 ADD SWAP1 PUSH1 0x20 ADD DUP1 DUP4 GT PUSH2 0x1A7 JUMPI DUP3 SWAP1 SUB PUSH1 0x1F AND DUP3 ADD SWAP2 JUMPDEST POP POP POP POP POP SWAP1 POP DUP3 JUMP JUMPDEST PUSH1 0x8 DUP2 DUP2 SLOAD DUP2 LT PUSH2 0x1DD JUMPI PUSH0 DUP1 REVERT JUMPDEST SWAP1 PUSH0 MSTORE PUSH1 0x20 PUSH0 KECCAK256 SWAP1 PUSH1 0x2 MUL ADD PUSH0 SWAP2 POP SWAP1 POP DUP1 PUSH0 ADD SLOAD SWAP1 DUP1 PUSH1 0x1 ADD DUP1 SLOAD PUSH2 0x202 SWAP1 PUSH2 0x639 JUMP JUMPDEST DUP1 PUSH1 0x1F ADD PUSH1 0x20 DUP1 SWAP2 DIV MUL PUSH1 0x20 ADD PUSH1 0x40 MLOAD SWAP1 DUP2 ADD PUSH1 0x40 MSTORE DUP1 SWAP3 SWAP2 SWAP1 DUP2 DUP2 MSTORE PUSH1 0x20 ADD DUP3 DUP1 SLOAD PUSH2 0x22E SWAP1 PUSH2 0x639 JUMP JUMPDEST DUP1 ISZERO PUSH2 0x279 JUMPI DUP1 PUSH1 0x1F LT PUSH2 0x250 JUMPI PUSH2 0x100 DUP1 DUP4 SLOAD DIV MUL DUP4 MSTORE SWAP2 PUSH1 0x20 ADD SWAP2 PUSH2 0x279 JUMP JUMPDEST DUP3 ADD SWAP2 SWAP1 PUSH0 MSTORE PUSH1 0x20 PUSH0 KECCAK256 SWAP1 JUMPDEST DUP2 SLOAD DUP2 MSTORE SWAP1 PUSH1 0x1 ADD SWAP1 PUSH1 0x20 ADD DUP1 DUP4 GT PUSH2 0x25C JUMPI DUP3 SWAP1 SUB PUSH1 0x1F AND DUP3 ADD SWAP2 JUMPDEST POP POP POP POP POP SWAP1 POP DUP3 JUMP JUMPDEST DUP1 PUSH1 0x2 DUP2 SWAP1 SSTORE POP POP JUMP JUMPDEST PUSH0 PUSH1 0x40 MLOAD DUP1 PUSH1 0x40 ADD PUSH1 0x40 MSTORE DUP1 DUP4 DUP2 MSTORE PUSH1 0x20 ADD DUP5 DUP2 MSTORE POP SWAP1 POP PUSH1 0x8 DUP2 SWAP1 DUP1 PUSH1 0x1 DUP2 SLOAD ADD DUP1 DUP3 SSTORE DUP1 SWAP2 POP POP PUSH1 0x1 SWAP1 SUB SWAP1 PUSH0 MSTORE PUSH1 0x20 PUSH0 KECCAK256 SWAP1 PUSH1 0x2 MUL ADD PUSH0 SWAP1 SWAP2 SWAP1 SWAP2 SWAP1 SWAP2 POP PUSH0 DUP3 ADD MLOAD DUP2 PUSH0 ADD SSTORE PUSH1 0x20 DUP3 ADD MLOAD DUP2 PUSH1 0x1 ADD SWAP1 DUP2 PUSH2 0x2EB SWAP2 SWAP1 PUSH2 0x809 JUMP JUMPDEST POP POP POP POP POP POP JUMP JUMPDEST PUSH0 DUP2 SWAP1 POP SWAP2 SWAP1 POP JUMP JUMPDEST PUSH2 0x305 DUP2 PUSH2 0x2F3 JUMP JUMPDEST DUP3 MSTORE POP POP JUMP JUMPDEST PUSH0 PUSH1 0x20 DUP3 ADD SWAP1 POP PUSH2 0x31E PUSH0 DUP4 ADD DUP5 PUSH2 0x2FC JUMP JUMPDEST SWAP3 SWAP2 POP POP JUMP JUMPDEST PUSH0 DUP2 MLOAD SWAP1 POP SWAP2 SWAP1 POP JUMP JUMPDEST PUSH0 DUP3 DUP3 MSTORE PUSH1 0x20 DUP3 ADD SWAP1 POP SWAP3 SWAP2 POP POP JUMP JUMPDEST DUP3 DUP2 DUP4 MCOPY PUSH0 DUP4 DUP4 ADD MSTORE POP POP POP JUMP JUMPDEST PUSH0 PUSH1 0x1F NOT PUSH1 0x1F DUP4 ADD AND SWAP1 POP SWAP2 SWAP1 POP JUMP JUMPDEST PUSH0 PUSH2 0x366 DUP3 PUSH2 0x324 JUMP JUMPDEST PUSH2 0x370 DUP2 DUP6 PUSH2 0x32E JUMP JUMPDEST SWAP4 POP PUSH2 0x380 DUP2 DUP6 PUSH1 0x20 DUP7 ADD PUSH2 0x33E JUMP JUMPDEST PUSH2 0x389 DUP2 PUSH2 0x34C JUMP JUMPDEST DUP5 ADD SWAP2 POP POP SWAP3 SWAP2 POP POP JUMP JUMPDEST PUSH0 PUSH1 0x40 DUP3 ADD SWAP1 POP PUSH2 0x3A7 PUSH0 DUP4 ADD DUP6 PUSH2 0x2FC JUMP JUMPDEST DUP2 DUP2 SUB PUSH1 0x20 DUP4 ADD MSTORE PUSH2 0x3B9 DUP2 DUP5 PUSH2 0x35C JUMP JUMPDEST SWAP1 POP SWAP4 SWAP3 POP POP POP JUMP JUMPDEST PUSH0 PUSH1 0x40 MLOAD SWAP1 POP SWAP1 JUMP JUMPDEST PUSH0 PUSH0 REVERT JUMPDEST PUSH0 PUSH0 REVERT JUMPDEST PUSH2 0x3DC DUP2 PUSH2 0x2F3 JUMP JUMPDEST DUP2 EQ PUSH2 0x3E6 JUMPI PUSH0 PUSH0 REVERT JUMPDEST POP JUMP JUMPDEST PUSH0 DUP2 CALLDATALOAD SWAP1 POP PUSH2 0x3F7 DUP2 PUSH2 0x3D3 JUMP JUMPDEST SWAP3 SWAP2 POP POP JUMP JUMPDEST PUSH0 PUSH1 0x20 DUP3 DUP5 SUB SLT ISZERO PUSH2 0x412 JUMPI PUSH2 0x411 PUSH2 0x3CB JUMP JUMPDEST JUMPDEST PUSH0 PUSH2 0x41F DUP5 DUP3 DUP6 ADD PUSH2 0x3E9 JUMP JUMPDEST SWAP2 POP POP SWAP3 SWAP2 POP POP JUMP JUMPDEST PUSH0 DUP2 SWAP1 POP SWAP2 SWAP1 POP JUMP JUMPDEST PUSH2 0x43A DUP2 PUSH2 0x428 JUMP JUMPDEST DUP2 EQ PUSH2 0x444 JUMPI PUSH0 PUSH0 REVERT JUMPDEST POP JUMP JUMPDEST PUSH0 DUP2 CALLDATALOAD SWAP1 POP PUSH2 0x455 DUP2 PUSH2 0x431 JUMP JUMPDEST SWAP3 SWAP2 POP POP JUMP JUMPDEST PUSH0 PUSH1 0x20 DUP3 DUP5 SUB SLT ISZERO PUSH2 0x470 JUMPI PUSH2 0x46F PUSH2 0x3CB JUMP JUMPDEST JUMPDEST PUSH0 PUSH2 0x47D DUP5 DUP3 DUP6 ADD PUSH2 0x447 JUMP JUMPDEST SWAP2 POP POP SWAP3 SWAP2 POP POP JUMP JUMPDEST PUSH0 PUSH0 REVERT JUMPDEST PUSH0 PUSH0 REVERT JUMPDEST PUSH32 0x4E487B7100000000000000000000000000000000000000000000000000000000 PUSH0 MSTORE PUSH1 0x41 PUSH1 0x4 MSTORE PUSH1 0x24 PUSH0 REVERT JUMPDEST PUSH2 0x4C4 DUP3 PUSH2 0x34C JUMP JUMPDEST DUP2 ADD DUP2 DUP2 LT PUSH8 0xFFFFFFFFFFFFFFFF DUP3 GT OR ISZERO PUSH2 0x4E3 JUMPI PUSH2 0x4E2 PUSH2 0x48E JUMP JUMPDEST JUMPDEST DUP1 PUSH1 0x40 MSTORE POP POP POP JUMP JUMPDEST PUSH0 PUSH2 0x4F5 PUSH2 0x3C2 JUMP JUMPDEST SWAP1 POP PUSH2 0x501 DUP3 DUP3 PUSH2 0x4BB JUMP JUMPDEST SWAP2 SWAP1 POP JUMP JUMPDEST PUSH0 PUSH8 0xFFFFFFFFFFFFFFFF DUP3 GT ISZERO PUSH2 0x520 JUMPI PUSH2 0x51F PUSH2 0x48E JUMP JUMPDEST JUMPDEST PUSH2 0x529 DUP3 PUSH2 0x34C JUMP JUMPDEST SWAP1 POP PUSH1 0x20 DUP2 ADD SWAP1 POP SWAP2 SWAP1 POP JUMP JUMPDEST DUP3 DUP2 DUP4 CALLDATACOPY PUSH0 DUP4 DUP4 ADD MSTORE POP POP POP JUMP JUMPDEST PUSH0 PUSH2 0x556 PUSH2 0x551 DUP5 PUSH2 0x506 JUMP JUMPDEST PUSH2 0x4EC JUMP JUMPDEST SWAP1 POP DUP3 DUP2 MSTORE PUSH1 0x20 DUP2 ADD DUP5 DUP5 DUP5 ADD GT ISZERO PUSH2 0x572 JUMPI PUSH2 0x571 PUSH2 0x48A JUMP JUMPDEST JUMPDEST PUSH2 0x57D DUP5 DUP3 DUP6 PUSH2 0x536 JUMP JUMPDEST POP SWAP4 SWAP3 POP POP POP JUMP JUMPDEST PUSH0 DUP3 PUSH1 0x1F DUP4 ADD SLT PUSH2 0x599 JUMPI PUSH2 0x598 PUSH2 0x486 JUMP JUMPDEST JUMPDEST DUP2 CALLDATALOAD PUSH2 0x5A9 DUP5 DUP3 PUSH1 0x20 DUP7 ADD PUSH2 0x544 JUMP JUMPDEST SWAP2 POP POP SWAP3 SWAP2 POP POP JUMP JUMPDEST PUSH0 PUSH0 PUSH1 0x40 DUP4 DUP6 SUB SLT ISZERO PUSH2 0x5C8 JUMPI PUSH2 0x5C7 PUSH2 0x3CB JUMP JUMPDEST JUMPDEST PUSH0 DUP4 ADD CALLDATALOAD PUSH8 0xFFFFFFFFFFFFFFFF DUP2 GT ISZERO PUSH2 0x5E5 JUMPI PUSH2 0x5E4 PUSH2 0x3CF JUMP JUMPDEST JUMPDEST PUSH2 0x5F1 DUP6 DUP3 DUP7 ADD PUSH2 0x585 JUMP JUMPDEST SWAP3 POP POP PUSH1 0x20 PUSH2 0x602 DUP6 DUP3 DUP7 ADD PUSH2 0x3E9 JUMP JUMPDEST SWAP2 POP POP SWAP3 POP SWAP3 SWAP1 POP JUMP JUMPDEST PUSH32 0x4E487B7100000000000000000000000000000000000000000000000000000000 PUSH0 MSTORE PUSH1 0x22 PUSH1 0x4 MSTORE PUSH1 0x24 PUSH0 REVERT JUMPDEST PUSH0 PUSH1 0x2 DUP3 DIV SWAP1 POP PUSH1 0x1 DUP3 AND DUP1 PUSH2 0x650 JUMPI PUSH1 0x7F DUP3 AND SWAP2 POP JUMPDEST PUSH1 0x20 DUP3 LT DUP2 SUB PUSH2 0x663 JUMPI PUSH2 0x662 PUSH2 0x60C JUMP JUMPDEST JUMPDEST POP SWAP2 SWAP1 POP JUMP JUMPDEST PUSH0 DUP2 SWAP1 POP DUP2 PUSH0 MSTORE PUSH1 0x20 PUSH0 KECCAK256 SWAP1 POP SWAP2 SWAP1 POP JUMP JUMPDEST PUSH0 PUSH1 0x20 PUSH1 0x1F DUP4 ADD DIV SWAP1 POP SWAP2 SWAP1 POP JUMP JUMPDEST PUSH0 DUP3 DUP3 SHL SWAP1 POP SWAP3 SWAP2 POP POP JUMP JUMPDEST PUSH0 PUSH1 0x8 DUP4 MUL PUSH2 0x6C5 PUSH32 0xFFFFFFFFFFFFFFFFFFFFFFFFFFFFFFFFFFFFFFFFFFFFFFFFFFFFFFFFFFFFFFFF DUP3 PUSH2 0x68A JUMP JUMPDEST PUSH2 0x6CF DUP7 DUP4 PUSH2 0x68A JUMP JUMPDEST SWAP6 POP DUP1 NOT DUP5 AND SWAP4 POP DUP1 DUP7 AND DUP5 OR SWAP3 POP POP POP SWAP4 SWAP3 POP POP POP JUMP JUMPDEST PUSH0 DUP2 SWAP1 POP SWAP2 SWAP1 POP JUMP JUMPDEST PUSH0 PUSH2 0x70A PUSH2 0x705 PUSH2 0x700 DUP5 PUSH2 0x2F3 JUMP JUMPDEST PUSH2 0x6E7 JUMP JUMPDEST PUSH2 0x2F3 JUMP JUMPDEST SWAP1 POP SWAP2 SWAP1 POP JUMP JUMPDEST PUSH0 DUP2 SWAP1 POP SWAP2 SWAP1 POP JUMP JUMPDEST PUSH2 0x723 DUP4 PUSH2 0x6F0 JUMP JUMPDEST PUSH2 0x737 PUSH2 0x72F DUP3 PUSH2 0x711 JUMP JUMPDEST DUP5 DUP5 SLOAD PUSH2 0x696 JUMP JUMPDEST DUP3 SSTORE POP POP POP POP JUMP JUMPDEST PUSH0 PUSH0 SWAP1 POP SWAP1 JUMP JUMPDEST PUSH2 0x74E PUSH2 0x73F JUMP JUMPDEST PUSH2 0x759 DUP2 DUP5 DUP5 PUSH2 0x71A JUMP JUMPDEST POP POP POP JUMP JUMPDEST JUMPDEST DUP2 DUP2 LT ISZERO PUSH2 0x77C JUMPI PUSH2 0x771 PUSH0 DUP3 PUSH2 0x746 JUMP JUMPDEST PUSH1 0x1 DUP2 ADD SWAP1 POP PUSH2 0x75F JUMP JUMPDEST POP POP JUMP JUMPDEST PUSH1 0x1F DUP3 GT ISZERO PUSH2 0x7C1 JUMPI PUSH2 0x792 DUP2 PUSH2 0x669 JUMP JUMPDEST PUSH2 0x79B DUP5 PUSH2 0x67B JUMP JUMPDEST DUP2 ADD PUSH1 0x20 DUP6 LT ISZERO PUSH2 0x7AA JUMPI DUP2 SWAP1 POP JUMPDEST PUSH2 0x7BE PUSH2 0x7B6 DUP6 PUSH2 0x67B JUMP JUMPDEST DUP4 ADD DUP3 PUSH2 0x75E JUMP JUMPDEST POP POP JUMPDEST POP POP POP JUMP JUMPDEST PUSH0 DUP3 DUP3 SHR SWAP1 POP SWAP3 SWAP2 POP POP JUMP JUMPDEST PUSH0 PUSH2 0x7E1 PUSH0 NOT DUP5 PUSH1 0x8 MUL PUSH2 0x7C6 JUMP JUMPDEST NOT DUP1 DUP4 AND SWAP2 POP POP SWAP3 SWAP2 POP POP JUMP JUMPDEST PUSH0 PUSH2 0x7F9 DUP4 DUP4 PUSH2 0x7D2 JUMP JUMPDEST SWAP2 POP DUP3 PUSH1 0x2 MUL DUP3 OR SWAP1 POP SWAP3 SWAP2 POP POP JUMP JUMPDEST PUSH2 0x812 DUP3 PUSH2 0x324 JUMP JUMPDEST PUSH8 0xFFFFFFFFFFFFFFFF DUP2 GT ISZERO PUSH2 0x82B JUMPI PUSH2 0x82A PUSH2 0x48E JUMP JUMPDEST JUMPDEST PUSH2 0x835 DUP3 SLOAD PUSH2 0x639 JUMP JUMPDEST PUSH2 0x840 DUP3 DUP3 DUP6 PUSH2 0x780 JUMP JUMPDEST PUSH0 PUSH1 0x20 SWAP1 POP PUSH1 0x1F DUP4 GT PUSH1 0x1 DUP2 EQ PUSH2 0x871 JUMPI PUSH0 DUP5 ISZERO PUSH2 0x85F JUMPI DUP3 DUP8 ADD MLOAD SWAP1 POP JUMPDEST PUSH2 0x869 DUP6 DUP3 PUSH2 0x7EE JUMP JUMPDEST DUP7 SSTORE POP PUSH2 0x8D0 JUMP JUMPDEST PUSH1 0x1F NOT DUP5 AND PUSH2 0x87F DUP7 PUSH2 0x669 JUMP JUMPDEST PUSH0 JUMPDEST DUP3 DUP2 LT ISZERO PUSH2 0x8A6 JUMPI DUP5 DUP10 ADD MLOAD DUP3 SSTORE PUSH1 0x1 DUP3 ADD SWAP2 POP PUSH1 0x20 DUP6 ADD SWAP5 POP PUSH1 0x20 DUP2 ADD SWAP1 POP PUSH2 0x881 JUMP JUMPDEST DUP7 DUP4 LT ISZERO PUSH2 0x8C3 JUMPI DUP5 DUP10 ADD MLOAD PUSH2 0x8BF PUSH1 0x1F DUP10 AND DUP3 PUSH2 0x7D2 JUMP JUMPDEST DUP4 SSTORE POP JUMPDEST PUSH1 0x1 PUSH1 0x2 DUP9 MUL ADD DUP9 SSTORE POP POP POP JUMPDEST POP POP POP POP POP POP JUMP INVALID LOG2 PUSH5 0x6970667358 0x22 SLT KECCAK256 0xEF CODESIZE PUSH9 0x1A739884D34768BBF7 LT LOG1 BLOBBASEFEE PUSH12 0x6E92586DFEBC734862BD6E86 GT SGT 0xA7 PREVRANDAO PUSH5 0x736F6C6343 STOP ADDMOD 0x1F STOP CALLER "
				},
				"gasEstimates": {
					"creation": {
						"codeDepositCost": "463600",
						"executionCost": "infinite",
						"totalCost": "infinite"
					},
					"external": {
						"addperson(string,uint256)": "infinite",
						"favoriteNumber()": "2425",
						"people(uint256)": "infinite",
						"person()": "infinite",
						"retrieve()": "2410",
						"store(int256)": "22581"
					}
				},
				"methodIdentifiers": {
					"addperson(string,uint256)": "e1b3202a",
					"favoriteNumber()": "471f7cdf",
					"people(uint256)": "9e7a13ad",
					"person()": "77ec2b55",
					"retrieve()": "2e64cec1",
					"store(int256)": "d80deced"
				}
			},
			"storageLayout": {
				"storage": [
					{
						"astId": 4,
						"contract": "contracts/SIMPLESTORAGE.sol:SimpleStorage",
						"label": "hasfavnum",
						"offset": 0,
						"slot": "0",
						"type": "t_bool"
					},
					{
						"astId": 7,
						"contract": "contracts/SIMPLESTORAGE.sol:SimpleStorage",
						"label": "favnum",
						"offset": 0,
						"slot": "1",
						"type": "t_uint256"
					},
					{
						"astId": 9,
						"contract": "contracts/SIMPLESTORAGE.sol:SimpleStorage",
						"label": "fanum",
						"offset": 0,
						"slot": "2",
						"type": "t_int256"
					},
					{
						"astId": 12,
						"contract": "contracts/SIMPLESTORAGE.sol:SimpleStorage",
						"label": "favnumit",
						"offset": 0,
						"slot": "3",
						"type": "t_string_storage"
					},
					{
						"astId": 15,
						"contract": "contracts/SIMPLESTORAGE.sol:SimpleStorage",
						"label": "akkiadd",
						"offset": 0,
						"slot": "4",
						"type": "t_address"
					},
					{
						"astId": 35,
						"contract": "contracts/SIMPLESTORAGE.sol:SimpleStorage",
						"label": "favoriteNumber",
						"offset": 0,
						"slot": "5",
						"type": "t_uint256"
					},
					{
						"astId": 42,
						"contract": "contracts/SIMPLESTORAGE.sol:SimpleStorage",
						"label": "person",
						"offset": 0,
						"slot": "6",
						"type": "t_struct(People)47_storage"
					},
					{
						"astId": 51,
						"contract": "contracts/SIMPLESTORAGE.sol:SimpleStorage",
						"label": "people",
						"offset": 0,
						"slot": "8",
						"type": "t_array(t_struct(People)47_storage)dyn_storage"
					}
				],
				"types": {
					"t_address": {
						"encoding": "inplace",
						"label": "address",
						"numberOfBytes": "20"
					},
					"t_array(t_struct(People)47_storage)dyn_storage": {
						"base": "t_struct(People)47_storage",
						"encoding": "dynamic_array",
						"label": "struct SimpleStorage.People[]",
						"numberOfBytes": "32"
					},
					"t_bool": {
						"encoding": "inplace",
						"label": "bool",
						"numberOfBytes": "1"
					},
					"t_int256": {
						"encoding": "inplace",
						"label": "int256",
						"numberOfBytes": "32"
					},
					"t_string_storage": {
						"encoding": "bytes",
						"label": "string",
						"numberOfBytes": "32"
					},
					"t_struct(People)47_storage": {
						"encoding": "inplace",
						"label": "struct SimpleStorage.People",
						"members": [
							{
								"astId": 44,
								"contract": "contracts/SIMPLESTORAGE.sol:SimpleStorage",
								"label": "favoriteNumber",
								"offset": 0,
								"slot": "0",
								"type": "t_uint256"
							},
							{
								"astId": 46,
								"contract": "contracts/SIMPLESTORAGE.sol:SimpleStorage",
								"label": "name",
								"offset": 0,
								"slot": "1",
								"type": "t_string_storage"
							}
						],
						"numberOfBytes": "64"
					},
					"t_uint256": {
						"encoding": "inplace",
						"label": "uint256",
						"numberOfBytes": "32"
					}
				}
			},
			"userdoc": {
				"kind": "user",
				"methods": {},
				"version": 1
			}
		}
	}
}